:020000040800F2
:1000000000000120C5020008CB020008CF02000852
:1000100041030008450300088D03000800000000AC
:100020000000000000000000000000004111000876
:10003000D903000800000000E11100084512000883
:10004000F1030008F1030008F1030008F1030008C0
:10005000F1030008F1030008F1030008F1030008B0
:10006000F1030008F1030008F1030008F1030008A0
:10007000F1030008F1030008F1030008F103000890
:10008000F1030008F1030008F1030008000000007C
:10009000000000000000000000000000F103000864
:1000A000F1030008F1030008F1030008F103000860
:1000B000F1030008F1030008F1030008F103000850
:1000C000F1030008F1030008F1030008F103000840
:1000D000F1030008F1030008F1030008000000002C
:1000E000F1030008F1030008F1030008000000001C
:1000F000000000000000000000000000F103000804
:1001000000000000F1030008F1030008F1030008FB
:1001100000000000000000000000000000000000DF
:10012000F1030008F1030008F1030008F1030008DF
:10013000F1030008000000000000000000000000C3
:10014000000000000000000000000000F1030008B3
:10015000F1030008F1030008F1030008F1030008AF
:10016000F1030008F1030008000000000000000097
:10017000000000000000000000000000000000007F
:1001800000000000F1030008000000000000000073
:10019000F103000800B583B000F0BAF9384B394AD2
:1001A0001360394A1360394900E02146384B9942BF
:1001B0000BD20A684B6801F10C0488689842F4D9A4
:1001C0001168196004330432F8E72E4B1A68314B7A
:1001D0009A4200D0FEE72C4B1A682F4B9A42F9D175
:1001E000274B2E4A13602E4A13602E4B05E0002049
:1001F000106004329342FAD80B462B4A934204D241
:10020000194651F8082B5B68F4E7244B1B6813B9B7
:10021000234B1B6803B1FEE700F086F9694601A88D
:1002200000F022F9214C224BE41AA4100025AC4224
:1002300014DC204C204BE41AA4100025AC4213DC43
:100240000099019800F0B8FE05461C4C1C4BE41ABE
:10025000A410002C0EDC284600F0E2F8144B53F8F2
:10026000253098470135E2E7134B53F8253098477E
:100270000135E3E7013C124B53F824309847E8E797
:10028000BABADECA000000207C000020F403000897
:100290000C040008785634123254769880000020FE
:1002A000585200200C0400081C0400081C0400081C
:1002B0001C0400081C0400081C0400081C0400089E
:1002C0001C04000808B5FFF765FF00BEFEE71EF03E
:1002D000040F0CBFEFF30880EFF309807146414A29
:1002E00010472DE9F04182B004468846124B5E6B00
:1002F0009F6B9D6A1B6B13F0020F03D00E4BDB6AE2
:10030000002B0CDB0D4800F0B7F8CDF800803B4621
:1003100032462946204600F00BF900BEFEE74BF6B8
:10032000AB6100F07FF90028ECD0034B4FF00042A6
:10033000DA6202B0BDE8F08100ED00E010340008A0
:1003400000BEFEE71EF0040F0CBFEFF30880EFF3D2
:1003500009807146244A10472DE9F04182B00446D5
:100360008846084B5E6B9F6B9D6A074800F084F8D7
:10037000CDF800803B4632462946204600F0D8F8AA
:1003800000BEFEE700ED00E0203400081EF0040F80
:100390000CBFEFF30880EFF309807146134A104752
:1003A0002DE9F04182B004468846084B5E6B9F6B96
:1003B0009D6A074800F060F8CDF800803B46324661
:1003C0002946204600F0B4F800BEFEE700ED00E04C
:1003D0002C34000800BEFEE700BEFEE700BEFEE7CC
:1003E00070470000E302000859030008A103000859
:0403F00000BEFEE766
:1003F40090340008000000208000002090340008A1
:100404000000001000000010800000205C5200205A
:080414000000001000000010C0
:10042000FEE7000008B503460C4A12685AB10B4AB1
:100430001068033323F003030344094A934206D8A8
:10044000064A136008BD054A06491160EFE702F04D
:10045000CDFA0C2303604FF0FF30F3E78400002057
:1004600000FC00205C52002001230360014B0B6064
:10047000704700BF040000200FB400B583B004AB88
:1004800053F8042B01938021064802F0F5FA002866
:1004900003DD0146034800F037F803B05DF804EBD4
:1004A00004B070478C0000202DE9F04385B004466D
:1004B0000F4643560BB10E461EE004252846214642
:1004C000ABBE0446384605B0BDE8F08314F9011B05
:1004D00004AA1A4402F8101C0133AB42F6D304AA52
:1004E0001344002203F8102C4FF00408E94640465C
:1004F0004946ABBE8046761B002EE3D03546102E13
:1005000028BF10250023E8E708B5FFF7CDFF08BD99
:1005100008B500F097F8024A024B9A6008BD00BF88
:100520000000000800ED00E008B500F0ABF808BDE1
:10053000F8B504460D4617461E462748FFF79CFFB0
:1005400021682648FFF798FF61682548FFF794FF68
:10055000A1682448FFF790FFE1682348FFF78CFF6C
:1005600021692248FFF788FF61692148FFF784FF6E
:10057000A1692048FFF780FFE1691F48FFF77CFF72
:100580001E48FFF779FF29461D48FFF775FF1D4CF0
:10059000E16A1D48FFF770FF216B1C48FFF76CFFF5
:1005A000E16B1B48FFF768FF15F0800F0AD115F4C7
:1005B000004F0CD11748FFF75FFF06991648FFF769
:1005C0005BFFF8BD39461548FFF756FFEFE73146A8
:1005D0001348FFF751FFEDE7F43200080433000839
:1005E000143300082433000834330008443300086F
:1005F000543300086433000874330008843300085F
:100600009033000800ED00E0A0330008B03300088C
:10061000C0330008F0330008F8330008D033000876
:10062000E033000883691A888A4201D000207047AD
:100630000268033A012A03D802338361012070471C
:10064000002070470C4B1A6842F001021A6000212A
:1006500099601A6822F0847222F480321A60074A84
:100660005A601A6822F480221A60D960044B4FF055
:1006700000629A60704700BF0038024010300024CA
:1006800000ED00E0224B9B6803F00C03042B14D018
:10069000082B16D01BB11F4B1F4A1A6002E01D4BDE
:1006A0001D4A1A601A4B9B68C3F303131B4AD15CA3
:1006B000184A1368CB4013607047164B184A1A60EB
:1006C000F0E7134B5A685B6803F03F0312F4800FA6
:1006D00013D0134AB2FBF3F20D4B5B68C3F38813DC
:1006E00003FB02F30A4A5268C2F30142013252008C
:1006F000B3FBF2F3074A1360D4E7074AB2FBF3F205
:10070000034B5B68C3F3881303FB02F3EAE700BF04
:10071000003802400C0000200024F4003C340008A3
:1007200040787D01022800F2D6800F2900F2D380A4
:1007300010B4032A08D8DFE802F0026B399D0128C3
:1007400014D018B1022821D010BC7047624B186831
:100750004900012202FA01F420EA04001860186836
:1007600011448A4020EA02021A60EDE75B4B1868E8
:100770004900012202FA01F420EA04001860186816
:1007800011448A4020EA02021A60DDE7544B1868DF
:100790004900012202FA01F420EA040018601868F6
:1007A00011448A4020EA02021A60CDE7012820D0D5
:1007B00080B10228C8D14A4B18684900012202FAC8
:1007C00001F420EA04001860186811448A400243CA
:1007D0001A60B9E7404B18684900012202FA01F497
:1007E00020EA04001860186811448A4002431A6025
:1007F000AAE73A4B18684900012202FA01F420EAFC
:1008000004001860186811448A4002431A609BE78C
:10081000012820D080B1022896D1314B18684900B8
:10082000012202FA01F420431860186811448A403A
:1008300020EA02021A6087E7274B18684900012264
:1008400002FA01F420431860186811448A4020EA33
:1008500002021A6078E7214B18684900012202FA67
:1008600001F420431860186811448A4020EA02020B
:100870001A6069E7012820D088B102287FF464AFAC
:10088000174B18684900012202FA01F4204318604E
:100890001868114402FA01F10143196054E70E4B44
:1008A00018684900012202FA01F420431860186810
:1008B00011448A4002431A6046E7084B1868490011
:1008C000012202FA01F420431860186811448A409A
:1008D00002431A6038E770470000024000040240FB
:1008E00000080240022843D80F2941D812B1012A3A
:1008F00021D0704701280CD010B1022812D07047C7
:100900001C480368012202FA01F123EA0101016097
:10091000704719480368012202FA01F123EA010134
:100920000160704715480368012202FA01F123EAC9
:1009300001010160704701280BD010B1022810D0CE
:1009400070470C480368012202FA01F11943016063
:10095000704709480368012202FA01F11943016056
:10096000704706480368012202FA01F11943016049
:10097000704700BF04000240040402400408024023
:10098000022800F2D6800F2900F2D38010B4032A87
:1009900008D8DFE802F0026B399D012814D018B1A5
:1009A000022821D010BC7047624B18684900012210
:1009B00002FA01F420EA04001860186811448A4021
:1009C00020EA02021A60EDE75B4B18684900012239
:1009D00002FA01F420EA04001860186811448A4001
:1009E00020EA02021A60DDE7544B18684900012230
:1009F00002FA01F420EA04001860186811448A40E1
:100A000020EA02021A60CDE7012820D080B1022836
:100A1000C8D14A4B18684900012202FA01F420EAC1
:100A200004001860186811448A4002431A60B9E74C
:100A3000404B18684900012202FA01F420EA040040
:100A40001860186811448A4002431A60AAE73A4BBA
:100A500018684900012202FA01F420EA0400186033
:100A6000186811448A4002431A609BE7012820D08D
:100A700080B1022896D1314B18684900012202FA50
:100A800001F420431860186811448A4020EA0202E9
:100A90001A6087E7274B18684900012202FA01F41F
:100AA00020431860186811448A4020EA02021A6044
:100AB00078E7214B18684900012202FA01F420432B
:100AC0001860186811448A4020EA02021A6069E737
:100AD000012820D088B102287FF464AF174B186832
:100AE0004900012202FA01F42043186018681144F9
:100AF00002FA01F10143196054E70E4B18684900EE
:100B0000012202FA01F420431860186811448A4057
:100B100002431A6046E7084B18684900012202FAAE
:100B200001F420431860186811448A4002431A6097
:100B300038E77047080002400804024008080240F5
:100B4000022843D80F2941D812B1012A21D0704779
:100B500001280CD010B1022812D070471C4803683D
:100B6000012202FA01F123EA0101016070471848ED
:100B70000368012202FA01F123EA010101607047D2
:100B800013480368012202FA01F123EA010101601E
:100B9000704701280BD010B1022810D070470C48C4
:100BA0000368012202FA01F1194301607047084805
:100BB0000368012202FA01F11943016070470448F9
:100BC0000368012202FA01F119430160704700BF76
:100BD00014000240032822D8DFE800F0020A121AAB
:100BE0000F480368012202FA01F1194301607047BE
:100BF0000C480368012202FA01F1194301607047B1
:100C000009480368012202FA01F1194301607047A3
:100C100006480368012202FA01F119430160704796
:100C200030380240343802404038024044380240F4
:100C3000094B1A6842F480321A601A6822F4802242
:100C40001A6008331A6842F001021A601A6822F02A
:100C500002021A60704700BF00380240104A12F0CA
:100C6000070F1AD0D11D21F00701C1F5A04313448D
:100C70000A460C480260002141601344083B23F0FF
:100C800007030948036059601960991A516013609D
:100C9000064B1960064B196070474FF4A043E8E714
:100CA00010010020205100200C01002014510020D0
:100CB0001051002010B4124B1A6882421AD359689E
:100CC0005C18844203D14068014459601846416869
:100CD0004418A24212D10B4C2468A2420CD0526894
:100CE000114441601A6812680260984200D018608E
:100CF00010BC70471346DFE70460F6E70260F4E7D4
:100D0000205100200C01002070B5044601F092F83B
:100D1000364B1B689BB13CB104F00703C3F11003D1
:100D2000DA43A2420ED31C44002C54DB002C54D0D6
:100D30002F4B1B68A34252D32E4B1D6806E0FFF7D2
:100D40008DFFE8E70024EFE72B4615466A68A242CC
:100D500002D22A68002AF7D1244A1268AA4240D057
:100D60001E6808362A681A606B681B1B102B10D986
:100D7000281910F0070F08D04FF0500383F31188A3
:100D8000BFF36F8FBFF34F8FFEE743606C60FFF7D9
:100D900091FF6A6816490B689B1A0B60164909682F
:100DA0008B4201D214490B6042F000426A6000237A
:100DB0002B60124A13680133136001F003F916F037
:100DC000070F10D04FF0500383F31188BFF36F8FDC
:100DD000BFF34F8FFEE70026EFE70026EDE7002682
:100DE000EBE70026E9E7304670BD00BF0C010020AC
:100DF00010510020205100201451002018510020D3
:100E0000A0B338B50446A0F1080550F8042C002A18
:100E100008DB4FF0500383F31188BFF36F8FBFF3EC
:100E20004F8FFEE750F8081C41B14FF0500383F399
:100E30001188BFF36F8FBFF34F8FFEE7002A14DADC
:100E400022F0004240F8042C00F0F4FF54F8041C97
:100E5000074A13680B4413602846FFF72BFF054A27
:100E600013680133136001F0ADF838BD704700BF5F
:100E7000105100201C51002000F1080343604FF086
:100E8000FF328260C3600361002303607047002368
:100E90000361704730B40D68B5F1FF3F02D000F137
:100EA000080202E0026904E01A4653681C68AC427A
:100EB000FAD953684B6099608A6051600861036891
:100EC0000133036030BC70470369426881689160F8
:100ED0008268416851605A68824206D000220261ED
:100EE0001A68013A1A601868704782685A60F5E714
:100EF00008B512E0002211461046FFF721FE124B02
:100F000000221A7000231A4619461048006800F0A3
:100F100081FB4FF47A7001F0FFF840F24C410B4B2B
:100F2000186800F0E1FC0A4B18600128F5D1064B67
:100F30001B78002BDED1012200210846FFF700FEBE
:100F4000014B01221A70DDE7285100205052002089
:100F50005452002008B512E0002201211046FFF78C
:100F6000EFFD124B00221A7000231A461946104852
:100F7000006800F04FFB4FF4FA6001F0CDF840F646
:100F800034010B4B186800F0AFFC0A4B18600128C5
:100F9000F5D1064B1B78002BDED101221146002033
:100FA000FFF7CEFD014B01221A70DDE72951002029
:100FB000505200205452002000B583B0FFF738FE95
:100FC00000210846FFF706FE012200210846FFF730
:100FD000A9FB012211460020FFF7A4FB01220221F8
:100FE0000020FFF79FFB002211461046FFF77AFC16
:100FF000002201211046FFF775FC00220221104655
:10100000FFF770FC002211461046FFF7B9FC0022E2
:1010100001211046FFF7B4FC002202211046FFF721
:10102000AFFC012200210846FFF78AFD012211468C
:101030000020FFF785FD012202210020FFF780FD3F
:1010400003220021012000F0B9FA0F4B186020B1F3
:1010500000231A46194600F0DDFA0024019401230A
:101060000093234632222146084800F067FE01948F
:1010700004230093234632222146054800F05EFEF9
:1010800000F092FEFEE700BF50520020F10E000873
:10109000550F000882B0002301930D4B1B68B3F17C
:1010A000FF3F08D04FF0500383F31188BFF36F8FD9
:1010B000BFF34F8FFEE74FF0500383F31188BFF368
:1010C0006F8FBFF34F8F019B002BFCD002B0704796
:1010D0001000002008480068006880F308884FF07E
:1010E000000080F3148862B661B6BFF34F8FBFF380
:1010F0006F8F00DF00BF000008ED00E0DFF80C009C
:10110000016841F4700101607047000088ED00E063
:101110004FF0807340F8043C21F0010140F8081CB6
:10112000054B40F80C3C40F8202C6FF0020340F8CF
:10113000243C4438704700BF9510000800000000B0
:10114000074B19680868B0E8F04F80F30988BFF3CF
:101150006F8F4FF0000080F311887047AFF300806D
:10116000305100204FF0500383F31188BFF36F8F8D
:10117000BFF34F8F0A4A136801331360012B00D06D
:101180007047084B1B6813F0FF0FF9D04FF0500366
:1011900083F31188BFF36F8FBFF34F8FFEE700BF5C
:1011A0001000002004ED00E0094B1B6843B94FF02C
:1011B000500383F31188BFF36F8FBFF34F8FFEE7A8
:1011C000013B034A13600BB983F31188704700BFDA
:1011D00010000020000000000000000000000000DF
:1011E000EFF30980BFF36F8F154B1A681EF0100FD5
:1011F00008BF20ED108A20E9F04F10602DE90900AA
:101200004FF0500080F31188BFF34F8FBFF36F8F03
:1012100000F0A8FF4FF0000080F3118809BC1968A6
:101220000868B0E8F04F1EF0100F08BFB0EC108A4D
:1012300080F30988BFF36F8F704700BFAFF3008062
:101240003051002008B54FF0500383F31188BFF3ED
:101250006F8FBFF34F8F00F0FBFD18B1034B4FF0C2
:1012600080521A60002383F3118808BD04ED00E06A
:10127000054B00221A6005490A60054A46F2A7118B
:10128000116007221A60704710E000E018E000E0EB
:1012900014E000E03A4B1A683A4B9A420DD0384BB2
:1012A0001A68394B9A4211D14FF0500383F31188D9
:1012B000BFF36F8FBFF34F8FFEE74FF0500383F301
:1012C0001188BFF36F8FBFF34F8FFEE710B582B069
:1012D0002E4B1A78D2B20192FF221A701B78DBB221
:1012E0008DF803309DF8033003F05003284A137043
:1012F000284B07221A6009E0264A1368013B136055
:101300009DF803305B00DBB28DF803309DF80330AD
:1013100013F0800FF0D11F4B1B68032B08D04FF048
:10132000500383F31188BFF36F8FBFF34F8FFEE736
:101330001B0203F4E063174A1360019BDBB2134AFC
:101340001370154B1A6842F470021A601A6842F062
:1013500070421A60FFF78CFF0024104B1C60FFF7EF
:10136000CDFE0F4A136843F040431360FFF7B2FE0F
:1013700000F0F8FEFFF78EFE204602B010BD00BF61
:1013800000ED00E071C20F4170C20F4100E400E0C7
:101390002A5100202C51002020ED00E010000020F8
:1013A00034EF00E0436A23B1036B1868C0F1050015
:1013B00070470020704710B50446FFF7D3FEA26BBC
:1013C000E36B9A4204D00024FFF7EEFE204610BDE6
:1013D0000124F9E710B50446FFF7C4FEA36B23B15F
:1013E0000024FFF7E1FE204610BD0124F9E770B5A7
:1013F00004461646856B026C5AB903681BB100207F
:101400000135A56370BD806801F07AF80023A36000
:10141000F6E76EB9406801F0EFFA226C6368134496
:101420006360A268934219D3236863600020E7E7F2
:10143000C06801F0E1FA226C5242E3681344E360B1
:1014400021688B4202D2A3681A44E260022E01D0C6
:101450000020D5E725B1013D0020D1E70020CFE7EE
:101460000020CDE7026C72B110B5C3681344C360AD
:101470008468A34201D30368C3600C46C168204658
:1014800001F0BAFA10BD704738B50546FFF76AFE9D
:1014900095F8454064B203E000F0B8FF013C64B247
:1014A000002C08DD6B6A33B105F1240000F0E8FE82
:1014B0000028F3D0F0E7FF2385F84530FFF774FEEE
:1014C000FFF750FE95F8444064B203E000F09EFF41
:1014D000013C64B2002C08DD2B6933B105F110002A
:1014E00000F0CEFE0028F3D0F0E7FF2385F844306B
:1014F000FFF75AFE38BD000038B540B94FF0500331
:1015000083F31188BFF36F8FBFF34F8FFEE704465D
:10151000C36B2BB1026C0020A2FB03234BB950B16B
:101520004FF0500383F31188BFF36F8FBFF34F8FDA
:10153000FEE70120F3E70D46FFF714FE2168E26B9A
:10154000236C03FB0210A0600020A0636160013ADD
:1015500002FB0313E360FF2384F8443084F8453032
:1015600095B9236963B104F1100000F089FE38B128
:101570000A4B4FF080521A60BFF34F8FBFF36F8F4B
:10158000FFF712FE012038BD04F11000FFF774FCD4
:1015900004F12400FFF770FCF2E700BF04ED00E067
:1015A00010B5029B0C4639B91B60D8631C6401213D
:1015B0001846FFF7A1FF10BD1A60F6E7F0B583B03B
:1015C000F8B103460020A1FB0345C5B9C8B901FB2A
:1015D00003F010F1490F14D81C4617460D46483049
:1015E000FFF792FB064638B100903B4600F14802F7
:1015F00029462046FFF7D4FF304603B0F0BD012056
:10160000E4E74FF0500383F31188BFF36F8FBFF30C
:101610004F8FFEE7F0B585B0019260B1044699B9ED
:10162000026C8AB14FF0500383F31188BFF36F8FC0
:10163000BFF34F8FFEE74FF0500383F31188BFF3E2
:101640006F8FBFF34F8FFEE7022B0BD1E26B012AA6
:1016500008D04FF0500383F31188BFF36F8FBFF3AF
:101660004F8FFEE71E460F4600F0D6FE50B9019B95
:1016700053B14FF0500383F31188BFF36F8FBFF363
:101680004F8FFEE700253AE0002538E03246394624
:101690002046FFF7ACFE636A4BB9A8B13B4B4FF055
:1016A00080521A60BFF34F8FBFF36F8F0CE004F1CD
:1016B000240000F0E5FD38B1344B4FF080521A6041
:1016C000BFF34F8FBFF36F8FFFF76EFD012005B0A3
:1016D000F0BDFFF769FD0020F9E702A800F04CFE1D
:1016E000012519E0002384F8443021E0002384F828
:1016F000453023E02046FFF7C7FE00F063FCFFF70C
:1017000031FDA26BE36B9A42C0D3022EBED0019B87
:10171000002BDED0002DE0D0FFF746FD00F08AFB65
:10172000FFF720FD94F844305BB2B3F1FF3FD9D00E
:1017300094F845305BB2B3F1FF3FD7D0FFF734FDEB
:1017400001A902A800F024FEC8B92046FFF733FE25
:101750000028CFD0019904F1100000F04FFD204681
:10176000FFF792FE00F02EFC0028C8D1074B4FF087
:1017700080521A60BFF34F8FBFF36F8FBFE72046D1
:10178000FFF782FE00F01EFC0020A0E704ED00E061
:10179000F0B585B0019260B1044699B9036C8BB184
:1017A0004FF0500383F31188BFF36F8FBFF34F8F58
:1017B000FEE74FF0500383F31188BFF36F8FBFF341
:1017C0004F8FFEE70F4600F027FE50B9019B53B143
:1017D0004FF0500383F31188BFF36F8FBFF34F8F28
:1017E000FEE700263EE000263CE039462046FFF7B3
:1017F00039FE013DA563236923B9FFF7D5FC01201C
:1018000005B0F0BD04F1100000F03AFD0028F4D05E
:10181000344B4FF080521A60BFF34F8FBFF36F8F7E
:10182000EBE7FFF7C1FC0020EAE702A800F0A4FD07
:10183000012621E0002384F8443029E0002384F8C5
:1018400045302BE02046FFF71FFE00F0BBFB09E010
:101850002046FFF719FE00F0B5FB2046FFF7BAFD62
:1018600000283DD1FFF77EFCA56B002DBDD1019B6B
:10187000002BD6D0002ED8D0FFF796FC00F0DAFA75
:10188000FFF770FC94F844305BB2B3F1FF3FD1D066
:1018900094F845305BB2B3F1FF3FCFD0FFF784FC43
:1018A00001A902A800F074FD0028D1D12046FFF75D
:1018B00091FD0028C6D0019904F1240000F09EFC9F
:1018C0002046FFF7E1FD00F07DFB0028CAD1054B63
:1018D0004FF080521A60BFF34F8FBFF36F8FC1E795
:1018E00000208DE704ED00E070B584B0019140B9AF
:1018F0004FF0500383F31188BFF36F8FBFF34F8F07
:10190000FEE70446036C43B14FF0500383F31188A4
:10191000BFF36F8FBFF34F8FFEE700F07DFD50B92F
:10192000019B5BB14FF0500383F31188BFF36F8FBE
:10193000BFF34F8FFEE700252E4648E000252E46D8
:1019400045E0013BA363236813B900F09DFEA0604E
:10195000236963B104F1100000F092FC38B1444BEC
:101960004FF080521A60BFF34F8FBFF36F8FFFF7B6
:101970001BFC0125284604B070BDFFF715FC0025AF
:10198000F8E702A800F0F8FC01262AE0002384F81A
:10199000443032E0002384F8453034E0FFF7E2FBC6
:1019A000A06800F049FD0546FFF7FEFB3BE020463E
:1019B000FFF76AFD00F006FB09E02046FFF764FD33
:1019C00000F000FB2046FFF705FD002840D1FFF79F
:1019D000C9FBA36B002BB4D1019B002BCDD0002EF3
:1019E000CFD0FFF7E1FB00F025FAFFF7BBFB94F83F
:1019F00044305BB2B3F1FF3FC8D094F845305BB2DE
:101A0000B3F1FF3FC6D0FFF7CFFB01A902A800F05A
:101A1000BFFC0028D1D12046FFF7DCFC0028C6D04F
:101A20002368002BBAD0019904F1240000F0E6FBF2
:101A30002046FFF729FD00F0C5FA0028C7D10C4B5E
:101A40004FF080521A60BFF34F8FBFF36F8FBEE726
:101A5000002D8FD0FFF786FB2046FFF7A3FC014641
:101A6000A06800F0ABFDFFF79FFB002582E700BFF9
:101A700004ED00E070B504460D461646FFF772FB14
:101A800094F844305BB2B3F1FF3F0DD094F8453089
:101A90005BB2B3F1FF3F0BD0FFF786FBA36B5BB1EB
:101AA0002046FFF7F1FC70BD002384F84430EDE7D9
:101AB000002384F84530EFE73246294604F124003C
:101AC00000F0B4FBECE70000064B1B68012BFBD9D0
:101AD000054B4FF080521A60BFF34F8FBFF36F8FEB
:101AE000F2E700BF3C51002004ED00E0074B1B680B
:101AF0001B6823B9064B4FF0FF321A607047034B47
:101B00001B68DB681A68024B1A607047345100206A
:101B1000DC5100202DE9F843089DDDF824800A9C63
:101B2000266B02F18042013A06EB820626F0070698
:101B300079B10F46002207E017F902C0A11881F819
:101B400034C0B95611B10132092AF5D9002284F8FE
:101B50003D20042D08D94FF0500383F31188BFF3C3
:101B60006F8FBFF34F8FFEE799460746E562256406
:101B7000201DFFF78CF904F11800FFF788F92461A4
:101B8000C5F10505A56164624A4639463046FFF74E
:101B9000BFFA2060B8F1000F01D0C8F80040BDE8DE
:101BA000F883000038B5002407E004EB84029300BA
:101BB0000B481844FFF760F90134042CF5D9094D9E
:101BC0002846FFF759F9084C2046FFF755F9074812
:101BD000FFF752F9064B1D60064B1C6038BD00BF75
:101BE0003C510020B0510020C4510020E851002099
:101BF000345100203851002038B50446FFF7B2FABE
:101C0000284A136801331360274B1B685BB1274BCD
:101C10001B686BB9244B1B68DA6AE36A9A4207D8DF
:101C2000214B1C6004E0204B1C601368012B36D054
:101C30001F4A136801331360E36A01229A401D4969
:101C4000086802430A601C4A03EB830399001144AD
:101C50004B68A3609968E1609868211D41609960B4
:101C6000E06A83001D18A9005518656151580131BB
:101C7000034498001150FFF797FA0C4B1B686BB1A7
:101C8000094B1B68DA6AE36A9A4207D20B4B4FF0A2
:101C900080521A60BFF34F8FBFF36F8F38BDFFF7CD
:101CA00081FFC5E7A051002030510020FC510020E9
:101CB000A8510020AC5100203C51002004ED00E070
:101CC00038B50446174B1D68174B18680430FFF7EA
:101CD000FBF850B9144B1B68DA6A012303FA02F2CD
:101CE00012490B6823EA02030B602C440E4B1B685D
:101CF0005C60A5420DD80E4B18680B4B1968043177
:101D0000FFF7C8F80B4B1B68A34209D9094B1C60AD
:101D100006E0094B1868044B19680431FFF7BAF85C
:101D200038BD00BF0052002030510020AC510020CF
:101D300034510020DC510020385100202DE9F043BF
:101D400085B007468846154699469000FEF7DCFFA9
:101D500018B306465020FEF7D7FF0446C8B15022FC
:101D6000002100F054FE2663D4B1002303930294B3
:101D70000D9B01930C9B00934B462A4641463846E7
:101D8000FFF7C8FE2046FFF737FF012005B0BDE88A
:101D9000F0833046FFF734F8E6E74FF0FF30F5E721
:101DA0004FF0FF30F2E7000000B583B01A4B01930B
:101DB00000230093802219491948FFF7BFFF01282B
:101DC00009D001280AD0B0F1FF3F1CD0154B1B6889
:101DD00003B05DF804FB00F0E3FDF2E74FF05003C1
:101DE00083F31188BFF36F8FBFF34F8F0E4B4FF00C
:101DF000FF321A600D4B01221A600D4B00221A604F
:101E0000FFF748FAE2E74FF0500383F31188BFF37E
:101E10006F8FBFF34F8FFEE7D85100204C3400087E
:101E2000C91A000814000020DC510020FC510020D9
:101E300000520020024A136801331360704700BF4C
:101E4000A4510020014B1868704700BF00520020C9
:101E5000F8B5514B1B68002B40F098804F4B1C6825
:101E600001341C60C4B94E4B1B681B6843B14FF072
:101E7000500383F31188BFF36F8FBFF34F8FFEE7DB
:101E8000474A1168474B186810601960464A136842
:101E900001331360FFF72AFE444B1B68A34265D948
:101EA0000020434B1B68DB6A03EB83039A00414B22
:101EB0009B58012B00D901203F4B1B68002B6AD097
:101EC000012068E00120364B1B681B68002B4FD0B7
:101ED000334B1B68DB68DB685A6894424DD35A6900
:101EE0009968DD688D60D9689D684D6051681E1DD8
:101EF000B14245D0002159611168013911609A6AD7
:101F00007AB1D9691D6A8D60196ADD694D605568BD
:101F100003F118018D4236D0002199621168013910
:101F20001160DA6A01219140244D2F6839432960FC
:101F3000204902EB820295000D446A689A60956818
:101F4000DD6095686E609660DE6AB2009719BD002C
:101F50004F195F614D590135324496008D51DA6A4F
:101F6000134B1B68DB6A9A42ACD8ACE70020AAE7A7
:101F70000E4B4FF0FF321A6093E70C4B1A6090E75C
:101F8000D9685160B6E7196A5160C5E70C4A136811
:101F9000013313600020F8BDA4510020005200203E
:101FA0003451002038510020E0510020DC51002045
:101FB000305100203C51002004520020AC51002040
:101FC000E451002038B54B4B1B6843B94FF0500328
:101FD00083F31188BFF36F8FBFF34F8FFEE7FFF7D7
:101FE000C1F8444B1A68013A1A601B68002B7CD177
:101FF000414B1B6853B90024FFF7D6F8204638BD83
:10200000196A516016E0D968516023E000233B4A09
:102010001268002A4BD0394BDB68DB689A6AD969B1
:10202000186A8860196AD8694860506803F1180115
:102030008842E5D0002199621168013911605A691E
:102040009968D8688860D9689868486051681C1D8C
:10205000A142D8D000215961116801391160DA6AB2
:10206000012191402648056829430160254902EB7A
:1020700082029000084442689A609068D860906834
:1020800044609460DC6AA2001519A8000D185D6117
:1020900008580130224494000851D96A1A4A12683B
:1020A000D26A9142B3D3194A01211160AFE70BB153
:1020B000FFF71CFD164B1C6854B1FFF7C9FE10B1A9
:1020C000124B01221A60013CF7D1114B00221A6019
:1020D0000E4B1B685BB10F4B4FF080521A60BFF381
:1020E0004F8FBFF36F8F012486E7002484E700241D
:1020F00082E700BFA4510020A0510020E851002039
:10210000AC5100203C5100203051002004520020EE
:10211000E451002004ED00E010B5A8B104460F4BD7
:102120001B6843B14FF0500383F31188BFF36F8FE7
:10213000BFF34F8FFEE7FFF77DFE00212046FFF73C
:10214000BFFDFFF73FFF38B9054B4FF080521A60D3
:10215000BFF34F8FBFF36F8F10BD00BFA45100209E
:1021600004ED00E0204B1B681BB1204B01221A60DC
:1021700070471E4B00221A601D4B1B68B3FA83F395
:10218000DBB2C3F11F0303EB83018A0019498A58AC
:1021900042B94FF0500383F31188BFF36F8FBFF341
:1021A0004F8FFEE710B413489A00D418A1000144E1
:1021B0004C6864684C601A449100083108448442B9
:1021C0000BD003EB83039A000A4B13445B68DA6875
:1021D000094B1A605DF8044B70476168054814228A
:1021E00002FB03025160ECE7A451002004520020DE
:1021F000AC5100203C5100203051002040B94FF03C
:10220000500383F31188BFF36F8FBFF34F8FFEE747
:1022100010B50C46044B19681831FEF73BFE01213E
:102220002046FFF74DFD10BD30510020E8B170B5DC
:102230000E4604464068114B1968C86119688568E4
:102240000D621D68816818354D601D681835856000
:102250001B689C622368013323600AB14FF0FF368C
:1022600011463046FFF72CFD70BD4FF0500383F34D
:102270001188BFF36F8FBFF34F8FFEE730510020FF
:10228000C368DB68002B50D030B49A6AD969186AE9
:102290008860196AD8694860516803F11800814262
:1022A00001D1196A516000219962116801391160E8
:1022B0002B4A1268002A44D15A699968D868886004
:1022C000D9689868486051681C1DA14236D0002129
:1022D0005961116801391160DA6A01219140214880
:1022E000056829430160204902EB820290000844FE
:1022F00042689A609068D860906844609460DC6A34
:10230000A2001519A8000D185D610858013022447B
:1023100094000851DA6A154B1B68DB6A9A421DD992
:102320000120134B186030BC70474FF0500383F30B
:102330001188BFF36F8FBFF34F8FFEE7D9685160ED
:10234000C5E70C4A5168D9618C681C628C68606072
:1023500088609A62116801311160DBE70020E2E7D2
:10236000A4510020AC5100203C51002030510020ED
:1023700004520020E8510020034B1B680360034B0C
:102380001B684360704700BFE051002000520020EE
:1023900058B170B5054689B94FF0500383F31188E1
:1023A000BFF36F8FBFF34F8FFEE74FF0500383F300
:1023B0001188BFF36F8FBFF34F8FFEE70C46FEF718
:1023C000D1FE104B1B6869685A1A2E680E480068C7
:1023D000864201D0994209D9236893420AD8002342
:1023E00023600124FEF7E0FE204670BD0023236039
:1023F0000124F7E79B1A23602846FFF7BDFF00245E
:10240000F0E700BF00520020E0510020014B012204
:102410001A60704704520020054B1B6833B1054B0E
:102420001B680BB1002070470220704701207047E5
:10243000FC510020A4510020002859D070B504465A
:10244000C26A2C490968C96A8A4247D2816900294F
:1024500005DB28490968C96AC1F105018161606924
:1024600002EB82029100244A0A44904205D0214A9C
:102470001268D26AE262012070BD251D2846FEF76F
:1024800023FD40B9E26A012303FA02F21B490B68FB
:1024900023EA02030B60174B1B68DB6AE36201202F
:1024A00000FA03F215490E6832430A60124A03EB40
:1024B0008303990011444B68A3609968E1609968AF
:1024C0004D609D60E56AAB005E19B100561866610B
:1024D000515801442B449C001151CDE7026C054B2F
:1024E0001B68DB6A9A4201D20120C5E70020C3E7DE
:1024F00000207047305100203C510020AC5100209A
:1025000000284FD070B50446294B1B68834208D081
:102510004FF0500383F31188BFF36F8FBFF34F8FDA
:10252000FEE7436C43B94FF0500383F31188BFF3C8
:102530006F8FBFF34F8FFEE7013B4364C16A026CAC
:10254000914231D0002B31D1051D2846FEF7BCFC4D
:1025500040B9E26A012303FA02F216490B6823EA42
:1025600002030B60226CE262C2F10503A361012049
:1025700000FA02F30F490E6833430B600E4914232F
:1025800003FB02125268A2609668E6609668756066
:102590009560E26A03FB02F3CA186261CA580244FA
:1025A000CA5070BD002070470020FAE70020F8E70D
:1025B00030510020AC5100203C51002000285BD05D
:1025C00038B50346406C40B94FF0500383F311888F
:1025D000BFF36F8FBFF34F8FFEE71A6C8A4200D2B2
:1025E0000A46D96A914201D0012800D038BD23485B
:1025F0000068984208D14FF0500383F31188BFF36D
:102600006F8FBFF34F8FFEE7DA629869002802DB15
:10261000C2F105029A615A691948142404FB0101A8
:102620008A42E3D11C461D1D2846FEF74DFC40B9E9
:10263000E26A012303FA02F212490B6823EA020359
:102640000B60E16A01238B400E4A1068034313605C
:102650000B4A142303FB01214968A1608868E060EC
:10266000886845608D60E16A03FB01F3D118616100
:10267000D1580131D150B9E7704700BF3051002027
:102680003C510020AC510020054B1B6823B1044B8A
:102690001A68536C01335364014B1868704700BFCC
:1026A00030510020064B1A6813682BB901230360D0
:1026B00023B9D368186870470023F8E700207047F3
:1026C0000852002008B54160006191420CD8D21A2E
:1026D00083699A4201D3012010E0011D094B18685B
:1026E000FEF7D8FB002009E09A4201D2994206D2B7
:1026F000011D054B1868FEF7CDFB002008BD012029
:10270000FCE700BF0C5200200852002070B50446C0
:102710000D46164604E0A3691D44236A20469847E7
:10272000A1692B46324629442046FFF7CBFF0028FB
:10273000F1D170BD70B505460E460D4B1B68DB68C8
:10274000DC68201DFEF7C0FB94F8243013F0040F62
:1027500007D123F0010384F82430236A20469847E8
:1027600070BD324629462046FFF7D0FFF5E700BF8F
:102770000852002008B505E0DB684FF0FF3118680B
:10278000FFF7D8FF054B1B681A68002AF4D1044AEA
:10279000106802490860136008BD00BF085200209D
:1027A0000C52002038B50546FFF74CFB0446074B9A
:1027B0001B68834205D800232B60044B1C60204615
:1027C00038BDFFF7D7FF01232B60F6E73852002012
:1027D00070B582B006460C46FFF72CFB01A8FFF748
:1027E000E1FF019B23BB05460CB9B04217D224B1CF
:1027F000114B1B681B68CBB901242246711B0F4B80
:102800001868FFF737F9FFF7DDFB98B90C4B4FF06D
:1028100080521A60BFF34F8FBFF36F8F0AE0FFF74C
:10282000D1FB29463046FFF785FF03E00024E4E7AB
:10283000FFF7C8FB02B070BD0C5200203C520020D4
:1028400004ED00E030B585B0002201A9394B1868CD
:10285000FEF79EFF00286AD0019B002BF4DB039C4F
:10286000636913B1201DFEF72FFB6846FFF79AFF3F
:102870000546019B013B082BE6D8DFE803F0050580
:102880002A314A05052A310094F8243043F0010327
:1028900084F824300299A0690B462A460144204658
:1028A000FFF710FF0028CFD094F8243013F0040F66
:1028B00007D123F0010384F82430236A2046984787
:1028C000C2E7A3692A46029919442046FFF71EFF72
:1028D000F3E794F8243023F0010384F82430B3E7BD
:1028E00094F8243043F0010384F824300299A16164
:1028F00031B10346024601442046FFF7E3FEA3E759
:102900004FF0500383F31188BFF36F8FBFF34F8FE6
:10291000FEE794F8243013F0020F04D023F00103F3
:1029200084F8243090E72046FEF76AFA8CE705B079
:1029300030BD00BF3C52002000B583B001A8FFF7B6
:10294000B1FE0199FFF744FFFFF77CFFF6E70000B7
:1029500038B5FEF707FC0D4B1B6813B1FEF724FCDE
:1029600038BD0B4D2846FEF787FA0A4C2046FEF785
:1029700083FA094B1D60094B1C6000220C210520C5
:10298000FEF71CFE014B1860E8E700BF3C52002038
:102990001052002024520020085200200C52002027
:1029A00000B583B0FFF7D4FF0C4B1B6853B10C4B41
:1029B000019303230093002380220A490A48FFF76A
:1029C000BDF940B94FF0500383F31188BFF36F8F07
:1029D000BFF34F8FFEE703B05DF804FB3C520020CD
:1029E000405200205434000839290008014B18686F
:1029F000704700BF1800002010B5431E0A449142E2
:102A000000D110BD11F8014B03F8014FF7E7024464
:102A10000346934200D1704703F8011BF9E730B534
:102A2000141E05469BB0184605DA8B232B604FF029
:102A3000FF301BB030BD4FF40273ADF80C3014BF43
:102A400004F1FF332346029305934FF6FF73009181
:102A50000491ADF80E3002461E9B6946284600F0F0
:102A600073F8431CBCBF8B232B60002CE1D0009B70
:102A700000221A70DDE7000007B5009313460A46EE
:102A8000014603480068FFF7CAFF03B05DF804FB86
:102A9000180000202DE9F0478E689E4282460C46C1
:102AA0009046994637D88A8912F4906F31D02568BC
:102AB00009696F1A6569022305EB450595FBF3F576
:102AC00009F101033B449D4238BF1D46530530D5F3
:102AD000294600F075FB064650B90C23CAF80030B1
:102AE000A38943F04003A3814FF0FF30BDE8F08796
:102AF0003A462169FFF780FFA38923F4906343F0EE
:102B00008003A381266165613E44ED1B2660A560BC
:102B10004E464E4500D94E4632464146206800F0AA
:102B2000E7FAA3689B1BA36023681E44266000206D
:102B3000DCE72A4600F09EFB06460028E2D1216928
:102B4000504600F0EFFAC8E72DE9F04F9DB08046FF
:102B500003938B891D060C4616460FD50B696BB97E
:102B6000402100F02DFB2060206128B90C23C8F81B
:102B700000304FF0FF30C7E040236361002309932A
:102B800020238DF8293030238DF82A304FF0010BA7
:102B900037463D4615F8013B0BB1252B3ED1B7EB2F
:102BA000060A0BD05346324621464046FFF772FFD5
:102BB000013000F0A480099B534409933B78002B1B
:102BC00000F09D8000234FF0FF32CDE905230493F0
:102BD00007938DF853301A932F46052217F8011BDF
:102BE0004F4800F035FA049BD0B9D90644BF2022E3
:102BF0008DF853201A0744BF2B228DF853202A78D2
:102C00002A2A15D0079A2F4600200A25394611F89E
:102C1000013B303B092B4DD9B8B10FE02F46B8E747
:102C20003F4A801A0BFA00F0184304903D46D3E760
:102C3000039A111D12680391002A01DB079204E038
:102C4000524243F00203079204933B782E2B0CD19F
:102C50007B782A2B33D1039B1A1D1B680392002B10
:102C6000B8BF4FF0FF33023705932E4D397803225A
:102C7000284600F0EDF938B14023401B03FA00F07C
:102C8000049B034301370493397827488DF82810B3
:102C900006227E1C00F0DCF9002838D0234B13BB41
:102CA000039B073323F0070308330393099B4B442B
:102CB00009936DE705FB023201200F46A6E70023CA
:102CC0000137059319460A25384610F8012B303A8A
:102CD000092A03D9002BC8D00591C6E705FB0121BD
:102CE00001230746F0E703AB00932246104B04A9EB
:102CF0004046AFF30080B0F1FF3F8146D6D1A389B3
:102D00005B063FF536AF09981DB0BDE8F08F03AB09
:102D100000932246064B04A9404600F081F8EAE7FA
:102D20005C340008623400086634000800000000CB
:102D3000952A00082DE9F04791461F468A680B69DD
:102D4000DDF820809342B8BF1346C9F8003091F8EF
:102D5000432006460C4612B10133C9F800302368FF
:102D6000990642BFD9F800300233C9F8003025680F
:102D700015F0060507D104F1190AE368D9F8002017
:102D80009B1AAB4228DC94F843302268003318BF0A
:102D9000012392062DD404F1430239463046C04740
:102DA000013020D02368E568D9F8002003F006033D
:102DB000042B08BFAD1AA36822690CBF25EAE5758C
:102DC00000259342C4BF9B1AED184FF000091A3436
:102DD0004D451AD1002008E00123524639463046BD
:102DE000C047013003D14FF0FF30BDE8F087013517
:102DF000C3E7E1185A1C302081F84300224494F8BC
:102E0000451082F843100233C5E7012322463946B4
:102E10003046C0470130E6D009F10109D8E700008B
:102E20002DE9F04301F1430C0C46097E85B06E2973
:102E30001746064698460C9A00F0B38022D86329BC
:102E400036D00AD8002900F0B980582900F08380D4
:102E500004F1420584F8421032E0642901D0692966
:102E6000F6D120681368050603F104012AD51B6812
:102E70001160002B03DA2D225B4284F843206F4857
:102E80000A2239E0732900F09D8008D86F2920D0EC
:102E90007029DDD1236843F02003236003E0752906
:102EA00017D07829D4D1782384F84530644855E088
:102EB0001368191D1B68116004F1420584F8423043
:102EC00001238CE01B68116010F0400F18BF1BB28B
:102ED000CFE713682568181D1060280601D51B6808
:102EE00002E06806FBD51B8854486F2914BF0A22EC
:102EF0000822002184F843106568A560002DC0F207
:102F00009580216821F004012160002B3DD1002D26
:102F100040F08E806546082A0BD12368DB0708D570
:102F2000236962689A42DEBF302305F8013C05F14F
:102F3000FF35ACEB05032361CDF800803B4603AAC7
:102F400021463046FFF7F6FE01304DD14FF0FF30FD
:102F500005B0BDE8F083394884F84510136821684E
:102F60001D1D1B6815600A060BD5CA0744BF41F03A
:102F7000200121601BB9226822F020022260102269
:102F8000B7E74D0648BF9BB2EFE76546B3FBF2F1EA
:102F900002FB1133C35C05F8013D0B460029F5D156
:102FA000B9E7136825686169181D106028061B6859
:102FB00001D5196002E06A06FBD519800023236160
:102FC0006546B9E71368191D11601D686268002124
:102FD000284600F03DF808B1401B6060636823613B
:102FE000002384F84330A7E723692A463946304650
:102FF000C0470130AAD023689B0713D4E068039B25
:103000009842B8BF1846A3E701234A4639463046DE
:10301000C04701309AD00135E368039A9B1AAB424E
:10302000F2DCEBE7002504F11909F5E7002BACD140
:10303000037884F8423004F142056CE76D340008EF
:103040007E340008000000000000000000000000C6
:1030500001F0FF01102A2BDB10F0070F08D010F849
:10306000013B013A8B422DD010F0070F42B3F6D14D
:10307000F0B441EA012141EA014122F007047FF066
:1030800000070023F0E80256083C85EA010586EABD
:10309000010685FA47F5A3FA87F586FA47F6A5FAF9
:1030A00087F68EB9EED1F0BC01F0FF0102F0070205
:1030B00032B110F8013B013A83EA010313B1F8D1B0
:1030C0000020704701387047002D06BF3546033891
:1030D000073815F0010F07D1013015F4807F02BFCA
:1030E000013015F4C03F0130F0BC0138704700BF1B
:1030F000884210B501EB020307D8421E99420AD05C
:1031000011F8014B02F8014FF8E78342F5D9811815
:10311000D21AD34200D110BD13F8014D01F8014D70
:10312000F7E7000038B50546002945D051F8043CC2
:103130000C1F002BB8BFE41800F0D2F81F4A136828
:10314000104633B9636014602846BDE8384000F08B
:10315000C8B8A3420CD921686218934204BF1A6808
:103160005B68636004BF521822600460ECE713469A
:103170005A680AB1A242FAD919685818A0420BD16C
:1031800020680144581882421960DDD110685268E5
:103190005A6001441960D7E702D90C232B60D3E7AA
:1031A000206821188A4204BF11685268626004BF17
:1031B000091821605C60C7E738BD00BF4452002099
:1031C00070B5CD1C25F0030508350C2D38BF0C2536
:1031D000002D064601DBA94203D90C2333600020F1
:1031E00070BD00F07DF8214A1468214691B9204C49
:1031F00023681BB9304600F063F82060294630464A
:1032000000F05EF8431C24D10C233360304600F0FC
:1032100068F8E4E70B685B1B18D40B2B0FD90B6025
:10322000CD50CC18304600F05CF804F10B00231DA3
:1032300020F00700C31AD3D05A42E250D0E78C42A4
:103240004B6816BF636013600C46EBE70C46496899
:10325000CCE7C41C24F00304A04205D0211A304658
:1032600000F02EF80130CFD02560DBE7445200207B
:1032700048520020F8B5074614460E4621B91146BB
:10328000BDE8F840FFF79CBF22B9FFF74BFF25468A
:103290002846F8BD00F026F8A0420FD22146384655
:1032A000FFF78EFF05460028F2D031462246FFF791
:1032B000A3FB31463846FFF735FFE9E73546E7E738
:1032C00038B5064C0023054608462360FDF7AAF8EA
:1032D000431C02D1236803B12B6038BD4C5200203F
:1032E0007047704751F8043C181F002BBCBF0B58A7
:1032F000C0187047537461636B206672616D653AE4
:103300000A000000205230203D2020253038580A85
:1033100000000000205231203D2020253038580A7E
:1033200000000000205232203D2020253038580A6D
:1033300000000000205233203D2020253038580A5C
:103340000000000020523132203D20253038580A3C
:1033500000000000204C52203D2020253038580A23
:1033600000000000205043203D2020253038580A1E
:103370000000000020505352203D20253038580ACC
:10338000000000004653522F4641523A0A00000006
:103390002043465352203D2020253038580A000053
:1033A0002048465352203D2020253038580A00003E
:1033B0002044465352203D2020253038580A000032
:1033C0002041465352203D2020253038580A000025
:1033D000204D4D464152203D20253038580A0000EE
:1033E0002042464152203D2020253038580A000016
:1033F0004D6973630A000000204C522F4558435F0B
:1034000052455455524E3D20253038580A00000090
:103410005B486172644661756C745D0A000000006F
:103420005B4275734661756C745D0A005B55736130
:1034300067654661756C745D0A000000000000005D
:1034400000000000010203040607080949444C4536
:1034500000000000546D722053766300232D302B42
:103460002000686C4C006566674546470030313285
:1034700033343536373839414243444546003031DC
:0F3480003233343536373839616263646566003C
:103490007856341288000020000000000024F40058
:1034A000AAAAAAAA040000001C0000200000000034
:1034B000000000000000000000000000000000000C
:1034C00000000000000000000000000000000000FC
:1034D00000000000000000000000000000000000EC
:1034E00000000000000000000000000000000000DC
:1034F00000000000000000000000000000000000CC
:103500000000000000000000000000003254769827
:040000050800019559
:00000001FF
