:020000040800F2
:1000000000000120C5020008CB020008CF02000852
:1000100041030008450300088D03000800000000AC
:10002000000000000000000000000000D5030008F0
:10003000D903000800000000DD030008E103000808
:10004000F1030008F1030008F1030008F1030008C0
:10005000F1030008F1030008F1030008F1030008B0
:10006000F1030008F1030008F1030008F1030008A0
:10007000F1030008F1030008F1030008F103000890
:10008000F1030008F1030008F1030008000000007C
:10009000000000000000000000000000F103000864
:1000A000F1030008F1030008F1030008F103000860
:1000B000F1030008F1030008F1030008F103000850
:1000C000F1030008F1030008F1030008F103000840
:1000D000F1030008F1030008F1030008000000002C
:1000E000F1030008F1030008F1030008000000001C
:1000F000000000000000000000000000F103000804
:1001000000000000F1030008F1030008F1030008FB
:1001100000000000000000000000000000000000DF
:10012000F1030008F1030008F1030008F1030008DF
:10013000F1030008000000000000000000000000C3
:10014000000000000000000000000000F1030008B3
:10015000F1030008F1030008F1030008F1030008AF
:10016000F1030008F1030008000000000000000097
:10017000000000000000000000000000000000007F
:1001800000000000F1030008000000000000000073
:10019000F103000800B583B000F0BAF9384B394AD2
:1001A0001360394A1360394900E02146384B9942BF
:1001B0000BD20A684B6801F10C0488689842F4D9A4
:1001C0001168196004330432F8E72E4B1A68314B7A
:1001D0009A4200D0FEE72C4B1A682F4B9A42F9D175
:1001E000274B2E4A13602E4A13602E4B05E0002049
:1001F000106004329342FAD80B462B4A934204D241
:10020000194651F8082B5B68F4E7244B1B6813B9B7
:10021000234B1B6803B1FEE700F086F9694601A88D
:1002200000F022F9214C224BE41AA4100025AC4224
:1002300014DC204C204BE41AA4100025AC4213DC43
:100240000099019800F056FD05461C4C1C4BE41A21
:10025000A410002C0EDC284600F0E2F8144B53F8F2
:10026000253098470135E2E7134B53F8253098477E
:100270000135E3E7013C124B53F824309847E8E797
:10028000BABADECA0000002074000020F40300089F
:100290000C04000878563412325476987800002006
:1002A0001C0100200C0400081C0400081C040008A9
:1002B0001C0400081C0400081C0400081C0400089E
:1002C0001C04000808B5FFF765FF00BEFEE71EF03E
:1002D000040F0CBFEFF30880EFF309807146414A29
:1002E00010472DE9F04182B004468846124B5E6B00
:1002F0009F6B9D6A1B6B13F0020F03D00E4BDB6AE2
:10030000002B0CDB0D4800F0B7F8CDF800803B4621
:1003100032462946204600F00BF900BEFEE74BF6B8
:10032000AB6100F07FF90028ECD0034B4FF00042A6
:10033000DA6202B0BDE8F08100ED00E03418000898
:1003400000BEFEE71EF0040F0CBFEFF30880EFF3D2
:1003500009807146244A10472DE9F04182B00446D5
:100360008846084B5E6B9F6B9D6A074800F084F8D7
:10037000CDF800803B4632462946204600F0D8F8AA
:1003800000BEFEE700ED00E0441800081EF0040F78
:100390000CBFEFF30880EFF309807146134A104752
:1003A0002DE9F04182B004468846084B5E6B9F6B96
:1003B0009D6A074800F060F8CDF800803B46324661
:1003C0002946204600F0B4F800BEFEE700ED00E04C
:1003D0005018000800BEFEE700BEFEE700BEFEE7C4
:1003E00070470000E302000859030008A103000859
:0403F00000BEFEE766
:1003F400B47700080000002078000020B4770008DB
:1004040000000010000000107800002020010020EF
:080414000000001000000010C0
:10042000FEE7000008B503460C4A12685AB10B4AB1
:100430001068033323F003030344094A934206D8A8
:10044000064A136008BD054A06491160EFE700F04F
:10045000EDFC0C2303604FF0FF30F3E77C0000203D
:1004600000FC00202001002001230360014B0B60F1
:10047000704700BF040000200FB400B583B004AB88
:1004800053F8042B01938021064800F001FD002859
:1004900003DD0146034800F037F803B05DF804EBD4
:1004A00004B07047840000202DE9F04385B0044675
:1004B0000F4643560BB10E461EE004252846214642
:1004C000ABBE0446384605B0BDE8F08314F9011B05
:1004D00004AA1A4402F8101C0133AB42F6D304AA52
:1004E0001344002203F8102C4FF00408E94640465C
:1004F0004946ABBE8046761B002EE3D03546102E13
:1005000028BF10250023E8E708B5FFF7CDFF08BD99
:1005100008B500F097F8024A024B9A6008BD00BF88
:100520000000000800ED00E008B500F0ABF808BDE1
:10053000F8B504460D4617461E462748FFF79CFFB0
:1005400021682648FFF798FF61682548FFF794FF68
:10055000A1682448FFF790FFE1682348FFF78CFF6C
:1005600021692248FFF788FF61692148FFF784FF6E
:10057000A1692048FFF780FFE1691F48FFF77CFF72
:100580001E48FFF779FF29461D48FFF775FF1D4CF0
:10059000E16A1D48FFF770FF216B1C48FFF76CFFF5
:1005A000E16B1B48FFF768FF15F0800F0AD115F4C7
:1005B000004F0CD11748FFF75FFF06991648FFF769
:1005C0005BFFF8BD39461548FFF756FFEFE73146A8
:1005D0001348FFF751FFEDE7181700082817000828
:1005E000381700084817000858170008681700084F
:1005F000781700088817000898170008A81700083F
:10060000B417000800ED00E0C4170008D417000874
:10061000E4170008141800081C180008F417000854
:100620000418000883691A888A4201D000207047A4
:100630000268033A012A03D802338361012070471C
:10064000002070470C4B1A6842F001021A6000212A
:1006500099601A6822F0847222F480321A60074A84
:100660005A601A6822F480221A60D960044B4FF055
:1006700000629A60704700BF0038024010300024CA
:1006800000ED00E0224B9B6803F00C03042B14D018
:10069000082B16D01BB11F4B1F4A1A6002E01D4BDE
:1006A0001D4A1A601A4B9B68C3F303131B4AD15CA3
:1006B000184A1368CB4013607047164B184A1A60EB
:1006C000F0E7134B5A685B6803F03F0312F4800FA6
:1006D00013D0134AB2FBF3F20D4B5B68C3F38813DC
:1006E00003FB02F30A4A5268C2F30142013252008C
:1006F000B3FBF2F3074A1360D4E7074AB2FBF3F205
:10070000034B5B68C3F3881303FB02F3EAE700BF04
:10071000003802400C0000200024F400601800089B
:1007200040787D01022800F2D6800F2900F2D380A4
:1007300010B4032A08D8DFE802F0026B399D0128C3
:1007400014D018B1022821D010BC7047624B186831
:100750004900012202FA01F420EA04001860186836
:1007600011448A4020EA02021A60EDE75B4B1868E8
:100770004900012202FA01F420EA04001860186816
:1007800011448A4020EA02021A60DDE7544B1868DF
:100790004900012202FA01F420EA040018601868F6
:1007A00011448A4020EA02021A60CDE7012820D0D5
:1007B00080B10228C8D14A4B18684900012202FAC8
:1007C00001F420EA04001860186811448A400243CA
:1007D0001A60B9E7404B18684900012202FA01F497
:1007E00020EA04001860186811448A4002431A6025
:1007F000AAE73A4B18684900012202FA01F420EAFC
:1008000004001860186811448A4002431A609BE78C
:10081000012820D080B1022896D1314B18684900B8
:10082000012202FA01F420431860186811448A403A
:1008300020EA02021A6087E7274B18684900012264
:1008400002FA01F420431860186811448A4020EA33
:1008500002021A6078E7214B18684900012202FA67
:1008600001F420431860186811448A4020EA02020B
:100870001A6069E7012820D088B102287FF464AFAC
:10088000174B18684900012202FA01F4204318604E
:100890001868114402FA01F10143196054E70E4B44
:1008A00018684900012202FA01F420431860186810
:1008B00011448A4002431A6046E7084B1868490011
:1008C000012202FA01F420431860186811448A409A
:1008D00002431A6038E770470000024000040240FB
:1008E00000080240022843D80F2941D812B1012A3A
:1008F00021D0704701280CD010B1022812D07047C7
:100900001C480368012202FA01F123EA0101016097
:10091000704719480368012202FA01F123EA010134
:100920000160704715480368012202FA01F123EAC9
:1009300001010160704701280BD010B1022810D0CE
:1009400070470C480368012202FA01F11943016063
:10095000704709480368012202FA01F11943016056
:10096000704706480368012202FA01F11943016049
:10097000704700BF04000240040402400408024023
:10098000022800F2D6800F2900F2D38010B4032A87
:1009900008D8DFE802F0026B399D012814D018B1A5
:1009A000022821D010BC7047624B18684900012210
:1009B00002FA01F420EA04001860186811448A4021
:1009C00020EA02021A60EDE75B4B18684900012239
:1009D00002FA01F420EA04001860186811448A4001
:1009E00020EA02021A60DDE7544B18684900012230
:1009F00002FA01F420EA04001860186811448A40E1
:100A000020EA02021A60CDE7012820D080B1022836
:100A1000C8D14A4B18684900012202FA01F420EAC1
:100A200004001860186811448A4002431A60B9E74C
:100A3000404B18684900012202FA01F420EA040040
:100A40001860186811448A4002431A60AAE73A4BBA
:100A500018684900012202FA01F420EA0400186033
:100A6000186811448A4002431A609BE7012820D08D
:100A700080B1022896D1314B18684900012202FA50
:100A800001F420431860186811448A4020EA0202E9
:100A90001A6087E7274B18684900012202FA01F41F
:100AA00020431860186811448A4020EA02021A6044
:100AB00078E7214B18684900012202FA01F420432B
:100AC0001860186811448A4020EA02021A6069E737
:100AD000012820D088B102287FF464AF174B186832
:100AE0004900012202FA01F42043186018681144F9
:100AF00002FA01F10143196054E70E4B18684900EE
:100B0000012202FA01F420431860186811448A4057
:100B100002431A6046E7084B18684900012202FAAE
:100B200001F420431860186811448A4002431A6097
:100B300038E77047080002400804024008080240F5
:100B4000022843D80F2941D812B1012A21D0704779
:100B500001280CD010B1022812D070471C4803683D
:100B6000012202FA01F123EA0101016070471848ED
:100B70000368012202FA01F123EA010101607047D2
:100B800013480368012202FA01F123EA010101601E
:100B9000704701280BD010B1022810D070470C48C4
:100BA0000368012202FA01F1194301607047084805
:100BB0000368012202FA01F11943016070470448F9
:100BC0000368012202FA01F119430160704700BF76
:100BD00014000240014B1860704700BF140002402F
:100BE000032822D8DFE800F0020A121A0F4803682F
:100BF000012202FA01F11943016070470C480368B1
:100C0000012202FA01F119430160704709480368A3
:100C1000012202FA01F11943016070470648036896
:100C2000012202FA01F11943016070473038024095
:100C30003438024040380240443802400F4A1368BA
:100C400043F0010313600E4B1A6822F001021A6090
:100C50001A6822F002021A601A6842F080021A60D2
:100C60001A6822F040021A601A6822F020021A6004
:100C70001A6822F010021A60704700BF0038024064
:100C800008380240024A136823F0040313607047D7
:100C900010E000E0084B1860043B1A6842F00102C3
:100CA0001A60064A1160064A012111701A6842F062
:100CB00002021A60704700BF14E000E00401002047
:100CC0000801002010B5094C2368094AD05CFFF7E1
:100CD00081FF236801332360226845F60F739A422F
:100CE00000D010BD00222260FBE700BF0C010020F5
:100CF0007018000808B5FFF7A1FFFFF7C3FF002138
:100D00000846FFF76DFF012200210846FFF70AFDA4
:100D1000012211460020FFF705FD012202210020DB
:100D2000FFF700FD012203210020FFF7FBFC012259
:100D300004210020FFF7F6FC012205210020FFF727
:100D4000F1FC012206210020FFF7ECFC00221146F5
:100D50001046FFF7C7FD002201211046FFF7C2FD34
:100D6000002202211046FFF7BDFD0022032110469C
:100D7000FFF7B8FD002204211046FFF7B3FD002263
:100D800005211046FFF7AEFD002206211046FFF7B1
:100D9000A9FD002211461046FFF7F2FD00220121B5
:100DA0001046FFF7EDFD002202211046FFF7E8FD97
:100DB000002203211046FFF7E3FD00220421104624
:100DC000FFF7DEFD002205211046FFF7D9FD0022C6
:100DD00006211046FFF7D4FD012200210846FFF747
:100DE000AFFE012211460020FFF7AAFE01220221D8
:100DF0000020FFF7A5FE012203210020FFF7A0FE3F
:100E0000012204210020FFF79BFE01220521002082
:100E1000FFF796FE012206210020FFF791FE02490E
:100E20007D20FFF737FFFEE7C50C0008014B18686F
:100E3000704700BF1000002030B5141E05469BB05F
:100E4000184605DA8B232B604FF0FF301BB030BD06
:100E50004FF40273ADF80C3014BF04F1FF33234696
:100E6000029305934FF6FF7300910491ADF80E3095
:100E700002461E9B6946284600F072F8431CBCBF20
:100E80008B232B60002CE1D0009B00221A70DDE741
:100E900007B5009313460A46014603480068FFF76A
:100EA000CBFF03B05DF804FB100000202DE9F047F4
:100EB0008E689E4282460C469046994637D88A896B
:100EC00012F4906F31D0256809696F1A65690223A1
:100ED00005EB450595FBF3F509F101033B449D4204
:100EE00038BF1D46530530D5294600F07BFB06462A
:100EF00050B90C23CAF80030A38943F04003A38102
:100F00004FF0FF30BDE8F0873A46216900F0F8FA6B
:100F1000A38923F4906343F08003A3812661656174
:100F20003E44ED1B2660A5604E464E4500D94E4618
:100F300032464146206800F0EEFAA3689B1BA3608E
:100F400023681E4426600020DCE72A4600F0A4FB4C
:100F500006460028E2D12169504600F0F5FAC8E7BC
:100F60002DE9F04F9DB0804603938B891D060C46FA
:100F700016460FD50B696BB9402100F033FB20609A
:100F8000206128B90C23C8F800304FF0FF30C7E0CB
:100F9000402363610023099320238DF829303023F7
:100FA0008DF82A304FF0010B37463D4615F8013BCE
:100FB0000BB1252B3ED1B7EB060A0BD05346324678
:100FC00021464046FFF772FF013000F0A480099BE4
:100FD000534409933B78002B00F09D8000234FF091
:100FE000FF32CDE90523049307938DF853301A930C
:100FF0002F46052217F8011B4F4800F031FA049BD9
:10100000D0B9D90644BF20228DF853201A0744BF17
:101010002B228DF853202A782A2A15D0079A2F469A
:1010200000200A25394611F8013B303B092B4DD9E8
:10103000B8B10FE02F46B8E73F4A801A0BFA00F02C
:10104000184304903D46D3E7039A111D126803919B
:10105000002A01DB079204E0524243F002030792A8
:1010600004933B782E2B0CD17B782A2B33D1039B16
:101070001A1D1B680392002BB8BF4FF0FF330237D5
:1010800005932E4D39780322284600F0E9F938B14E
:101090004023401B03FA00F0049B034301370493F1
:1010A000397827488DF8281006227E1C00F0D8F9E0
:1010B000002838D0234B13BB039B073323F00703CF
:1010C00008330393099B4B4409936DE705FB0232F8
:1010D00001200F46A6E700230137059319460A258C
:1010E000384610F8012B303A092A03D9002BC8D012
:1010F0000591C6E705FB012101230746F0E703AB95
:1011000000932246104B04A94046AFF30080B0F193
:10111000FF3F8146D6D1A3895B063FF536AF0998DC
:101120001DB0BDE8F08F03AB00932246064B04A927
:10113000404600F081F8EAE77F77000885770008ED
:101140008977000800000000AD0E00082DE9F04787
:1011500091461F468A680B69DDF820809342B8BF2C
:101160001346C9F8003091F8432006460C4612B1E8
:101170000133C9F800302368990642BFD9F800301E
:101180000233C9F80030256815F0060507D104F1CF
:10119000190AE368D9F800209B1AAB4228DC94F8BE
:1011A00043302268003318BF012392062DD404F186
:1011B000430239463046C047013020D02368E568F5
:1011C000D9F8002003F00603042B08BFAD1AA3686A
:1011D00022690CBF25EAE57500259342C4BF9B1A1E
:1011E000ED184FF000091A344D451AD1002008E0DF
:1011F0000123524639463046C047013003D14FF0F3
:10120000FF30BDE8F0870135C3E7E1185A1C3020F4
:1012100081F84300224494F8451082F843100233C9
:10122000C5E70123224639463046C0470130E6D0A3
:1012300009F10109D8E700002DE9F04301F1430C61
:101240000C46097E85B06E291746064698460C9ACC
:1012500000F0B38022D8632936D00AD8002900F0E4
:10126000B980582900F0838004F1420584F84210C7
:1012700032E0642901D06929F6D120681368050697
:1012800003F104012AD51B681160002B03DA2D221B
:101290005B4284F843206F480A2239E0732900F04A
:1012A0009D8008D86F2920D07029DDD1236843F0B4
:1012B0002003236003E0752917D07829D4D178233F
:1012C00084F84530644855E01368191D1B681160A7
:1012D00004F1420584F8423001238CE01B68116060
:1012E00010F0400F18BF1BB2CFE713682568181D18
:1012F0001060280601D51B6802E06806FBD51B8834
:1013000054486F2914BF0A220822002184F8431090
:101310006568A560002DC0F29580216821F0040168
:101320002160002B3DD1002D40F08E806546082ABB
:101330000BD12368DB0708D5236962689A42DEBFB8
:10134000302305F8013C05F1FF35ACEB05032361C3
:10135000CDF800803B4603AA21463046FFF7F6FE53
:1013600001304DD14FF0FF3005B0BDE8F083394872
:1013700084F84510136821681D1D1B6815600A0656
:101380000BD5CA0744BF41F0200121601BB9226878
:1013900022F0200222601022B7E74D0648BF9BB220
:1013A000EFE76546B3FBF2F102FB1133C35C05F8CE
:1013B000013D0B460029F5D1B9E71368256861693D
:1013C000181D106028061B6801D5196002E06A0626
:1013D000FBD51980002323616546B9E71368191D01
:1013E00011601D6862680021284600F039F808B1D4
:1013F000401B606063682361002384F84330A7E7E3
:1014000023692A4639463046C0470130AAD02368AE
:101410009B0713D4E068039B9842B8BF1846A3E724
:1014200001234A4639463046C04701309AD001353B
:10143000E368039A9B1AAB42F2DCEBE7002504F168
:101440001909F5E7002BACD1037884F8423004F198
:1014500042056CE790770008A177000800000000C3
:1014600001F0FF01102A2BDB10F0070F08D010F855
:10147000013B013A8B422DD010F0070F42B3F6D159
:10148000F0B441EA012141EA014122F007047FF072
:1014900000070023F0E80256083C85EA010586EAC9
:1014A000010685FA47F5A3FA87F586FA47F6A5FA05
:1014B00087F68EB9EED1F0BC01F0FF0102F0070211
:1014C00032B110F8013B013A83EA010313B1F8D1BC
:1014D0000020704701387047002D06BF354603389D
:1014E000073815F0010F07D1013015F4807F02BFD6
:1014F000013015F4C03F0130F0BC0138704700BF27
:1015000010B5431E0A44914200D110BD11F8014BA1
:1015100003F8014FF7E7884210B501EB020307D843
:10152000421E99420AD011F8014B02F8014FF8E728
:101530008342F5D98118D21AD34200D110BD13F8D5
:10154000014D01F8014DF7E738B50546002945D0B2
:1015500051F8043C0C1F002BB8BFE41800F0D2F87F
:101560001F4A1368104633B9636014602846BDE80B
:10157000384000F0C8B8A3420CD9216862189342E1
:1015800004BF1A685B68636004BF5218226004607D
:10159000ECE713465A680AB1A242FAD919685818FA
:1015A000A0420BD120680144581882421960DDD155
:1015B000106852685A6001441960D7E702D90C23B9
:1015C0002B60D3E7206821188A4204BF1168526853
:1015D000626004BF091821605C60C7E738BD00BFC6
:1015E0001001002070B5CD1C25F0030508350C2D29
:1015F00038BF0C25002D064601DBA94203D90C2378
:101600003360002070BD00F07DF8214A1468214647
:1016100091B9204C23681BB9304600F063F8206074
:101620002946304600F05EF8431C24D10C23336079
:10163000304600F068F8E4E70B685B1B18D40B2B0E
:101640000FD90B60CD50CC18304600F05CF804F197
:101650000B00231D20F00700C31AD3D05A42E250DA
:10166000D0E78C424B6816BF636013600C46EBE713
:101670000C464968CCE7C41C24F00304A04205D002
:10168000211A304600F02EF80130CFD02560DBE77C
:101690001001002014010020F8B5074614460E463C
:1016A00021B91146BDE8F840FFF79CBF22B9FFF70A
:1016B0004BFF25462846F8BD00F026F8A0420FD281
:1016C00021463846FFF78EFF05460028F2D0314606
:1016D0002246FFF715FF31463846FFF735FFE9E7A9
:1016E0003546E7E738B5064C002305460846236033
:1016F000FEF798FE431C02D1236803B12B6038BD6E
:10170000180100207047704751F8043C181F002B47
:10171000BCBF0B58C0187047537461636B2066726E
:10172000616D653A0A000000205230203D202025DE
:101730003038580A00000000205231203D2020257A
:101740003038580A00000000205232203D20202569
:101750003038580A00000000205233203D20202558
:101760003038580A0000000020523132203D202538
:101770003038580A00000000204C52203D2020251F
:101780003038580A00000000205043203D2020251A
:101790003038580A0000000020505352203D2025C8
:1017A0003038580A000000004653522F4641523A42
:1017B0000A0000002043465352203D2020253038A7
:1017C000580A00002048465352203D20202530383A
:1017D000580A00002044465352203D20202530382E
:1017E000580A00002041465352203D202025303821
:1017F000580A0000204D4D464152203D20253038EA
:10180000580A00002042464152203D202025303811
:10181000580A00004D6973630A000000204C522FE3
:101820004558435F52455455524E3D202530385857
:101830000A0000005B486172644661756C745D0A61
:10184000000000005B4275734661756C745D0A00B0
:101850005B55736167654661756C745D0A000000D5
:101860000000000000000000010203040607080950
:101870008285827F7B848F8C888D8A85777F929802
:101880007A6A697782747C7A857D7C797C7D7378CD
:1018900078828B88858779837C818572767E868A3B
:1018A0007B7486847978777D8B7A7C7468736C70AE
:1018B0007877868B9796939FA0A0918C817C777187
:1018C0006E6C707D7F868FA3AD96968D8174756DDD
:1018D000645F5C605E65696772848B9290838184CB
:1018E000867E726C6D6E6E757B878C86867E818639
:1018F00082887F868584888B918A888A959C999333
:101900008F908F7F7775706E767C838885888392C1
:10191000928784878C807467645B5F5F5E686F7A90
:1019200075777C82897F746F6C6B67655D5E656AB5
:1019300070768D9AA19CA4A5A6A89C9C9696968E3E
:101940008E938F8A83858C929DA7A79C918C82749D
:10195000696160646867605D635E61616F7E827FFC
:1019600077756E6D665F585966737A777B80858967
:10197000898F8F9695948F86878887898E9A9A9972
:101980009795948F939099A09F989086847C818856
:10199000959C9DA08F8E7C6A5B60757E796B5D5592
:1019A000555257606A6D6B645D6060574D4F646D52
:1019B000716F6C7B899697A5BAC7C0A99B97908FCA
:1019C00095B2C1B29C7C78849AA1A3A1A2A1988D62
:1019D0007A705D6267828A7D6149535A6B6A6D6B6A
:1019E0007571676266746D6B66777D786E65707908
:1019F0008284909899897E7D818A8A878B9C968A39
:101A00007B7F858B8C929999927B7B808E89837F5B
:101A1000898A807168737C877E7D76726861616C6B
:101A20007C786D6D827F685059708081828E877559
:101A300063658498968F89989C98827E909A9A91F3
:101A40009FA6997C6E758D98998A898C8B7D728002
:101A5000878C767A818067586979797673737E7C12
:101A60006E585B6E8781756D6B69686F7D87827C50
:101A7000848F907F707D8DA09A98939084757388E1
:101A8000A19E9591958F8779797F898C8B8E8D7F9B
:101A900071687382807A7585897C5E535F727D7E02
:101AA000807C6F5F5E66787D7A707F8A87776974E5
:101AB000828B888F94968A80879897948E8D9C9934
:101AC0008F7E7A818E8D8C8A89837677858B877DD0
:101AD0007E8C8B7C67667385817E787570666C778B
:101AE0007C7A75717E86806B656A787F8385817864
:101AF0006E7480919187828D93918177808F928E81
:101B000094928E8179808C90897D8996907C6C717D
:101B10007E878385817D6D636D7D837B6E6F7E7B2C
:101B20006D62666F7D8083827A726971848A867B3A
:101B300079888C8B7A747D929A94918D887B7D8A3A
:101B40009891837A82918C7D6F798A938C87817D3D
:101B5000776F7582857E746E7E7B7267677683830E
:101B60007F7B75746D727B878077717C89867E6DD3
:101B7000718291928C87837C7A849396877E7D8F05
:101B8000928A7F77828D94928A7E7B787C87898502
:101B90007D757884877F6A6E767D7F7C776C6D6DCE
:101BA000767A807C736D7988847A6D747E8783827F
:101BB0008080817E888E94867E82949C95857880B4
:101BC0008B928C8C8084817D858A8B80787A8A90B8
:101BD0008E796A6A737D7B7C75747172727A796FA3
:101BE0006E70868A867B6F6C778684837A7F7F802F
:101BF00084847F7D8285989996867A7985948D886C
:101C00007F8789858280827D7E7B8B918B7D7075BD
:101C10007D8985807778787874737973756F7F8B19
:101C20008C7D6A6F768380807D7F7E797A788180F3
:101C300080788495999076777C8B8E8C8C8D8B7D3B
:101C4000787D8B86847B7F8F938F77737684888370
:101C5000838081756D6E7B807C726D7E8885736AF2
:101C60006F80867D79767D7975707F8E84766F8AB8
:101C70009B9885747883908987868B8E847F8691E4
:101C80008B807080999D8F6F697281827D80838641
:101C90007771748182786E6F8891887162656D7ECC
:101CA000807E82817D7073808A7F7272839B988828
:101CB000696A768A90888D8B907F81848E8E7F77FB
:101CC0007AA2A593716173828F8385898C806F72EC
:101CD0007B8977706F84998C7358646E7F7E7F8662
:101CE000817E6E71727F7C7679809790826B6C7C3E
:101CF000838E8B94908E847C7F848E87858293954F
:101D00008C7D6B76818F8E8C8A857C747874837ED3
:101D1000756F768D8C806264707E877F827C7B732A
:101D200071727D807772778E958A716B7181908BDD
:101D30008E8889847A7C828C857E7F8F9B95817149
:101D40007481908E8C8A868072737A85857D767D8B
:101D50008A8C846D676C7984817F7F7C7370727AE2
:101D60007C77747789958D766A72808683898B8D6E
:101D70007E767B84877D7B81929C947F75787F8340
:101D80008690908C7E767781817A73778C97917626
:101D90006766748081878682756E6F7A7B767076CF
:101DA000898E8C786E6E7785878D89887F797C8324
:101DB00087827D8092968F7C70727E8D908F8786D1
:101DC0007E7B7B8185817D7C8D8F8771696F7C8433
:101DD0007D7D7A807D76727A817E787B888D847035
:101DE0006A6F808786817F847D7D7B8389827E8701
:101DF00091948472717E8E8F8A7F807D7E808186B1
:101E00008683828B8D88746A6E7E858380767671F8
:101E1000737980847E777C84867A70717682828101
:101E20007B7777747E868A867E818A8F887C777CB2
:101E3000858B8B867D7778818D8E8A82858F8F8842
:101E4000777279838A85847B726D71808687817BC6
:101E5000848881736C737B82818282786B657386E0
:101E60008B847B85908E7E6A707E90908C89817A3F
:101E70007378868B877F8596998A6D67748E968F27
:101E8000887C786C6E7F8B8D827B89959171636481
:101E900076898A8A7E71646478828171697E8A8F8C
:101EA0007564687F918C8A838077727F8D91857944
:101EB000909EA2826A6D829590928E8D7C6E798AB8
:101EC0009486747E8990796766748784857F7C6F39
:101ED000656D7C8982757A8286756A6B788B86855A
:101EE0007F7D79717A848E89818A8A8E7A71737EF8
:101EF0008C8D8F85827A74818B91867A868D90788D
:101F00006C6D7F928E897D78706E788089827B87F8
:101F10008B8A6E62687A8C88857C7974717C818901
:101F2000827D8A8C8C766E6E7C8B8D8F86807373AF
:101F3000808B918B7E8A91937E6E6D78888B8E8656
:101F40007F726E7C878C867987888770646D7A86CD
:101F50007E80797B726D78848C847D8587847166C0
:101F60006E7D8F8D887E796F707E8E9491858C8C3E
:101F700087746A7480928F8F837C716D7B88908D5B
:101F8000838B8B8370626D7C908F8D817A6F647090
:101F90008189887C878D87735E67748B8A8B857B4C
:101FA000716771838D8F8286908D826A6B72888F44
:101FB000949286796970838B9086868F8D866E6BFE
:101FC0006A7B879396887866697A858981818D870F
:101FD000836965677884858D84806F6E7982888552
:101FE000818D8C8A75676E77898990878379747DF6
:101FF000868D8B858B908C7E6A6B73898B918B829F
:102000007970798387827D808F8C8268616B818D06
:102010008F8A7A726B76828D867F79868E867163DF
:102020006C7B8D8D8E847B70717E8B8E8B84828B8E
:102030008A80716E7885908F8E83756D728691918E
:10204000857E7D878375666C7C8C8F89837A776CBF
:1020500076808E8882757A837F7767707C8E8C8895
:102060007F7A76777F858B8F847E8483837171738B
:102070008A93908C8386757C8583837C727584912A
:102080008D7C7E869399958D80765E596A7D7F7B67
:102090006D758287856B7B838F93908F8178676561
:1020A0006D7A716E778EA093806773818F8A828537
:1020B0007F7C7A7C7F8C7C7D7E8FA69F8E707273F6
:1020C00085817A7A737E757B8186837E7F859996FA
:1020D000846B606E7E85807C7B7E78767982827F61
:1020E000828AA29886655D67727D78898E97897FDE
:1020F0007D848A79797D9DA392765C6C777F7A7DE9
:10210000878D897A737E8E867A6E7F91907E6166E6
:1021100075878A8D928E85746C778D8E7B6F7593A3
:102120009B876A566E83908C8B8D888273747882BD
:102130007D75788B9C96816766788689888B8C8C78
:10214000807372798075707593A2967F666E7B85B9
:10215000817E888A886E676B7E8477777B9CA09669
:1021600077646C7B8F888985837F6D666A7E8986BC
:10217000858CA3A48F6A5A667B8881878C8E806841
:10218000616D868D86888EA2997C5B536A7B857F84
:10219000868D8F87726C71898F888581928E836618
:1021A0005D717E8F898C8D8A7E666A789295857D39
:1021B0007A8D8A7D66657A88918B8C8B8A7A6A6A39
:1021C000798B8F807E7C888B7A6D6479848D8F8B00
:1021D0008F897E6C67757C8B83827B7C848284771D
:1021E0007A7A858B888B88817369717C8B867B7505
:1021F000788D908F7B767D878D87898580756C70D3
:10220000747F807E7C7C8B8D8C7F767B7F87858BBB
:102210008A86796A666E818B88847D838B898475D2
:10222000747B848A8F8A8073666671808F918A80BE
:1022300078868C8E7C6F707F9492897973757073B9
:1022400076828F8A8075808C8F807075808D898270
:102250007E7E7F7571757F8A867E71758A93927F87
:102260007677838B857F787A7B7B7C7E85857E768F
:10227000748692918776797E88837C7C7C7E767268
:10228000727F8A867E757C8D928F7D7379838A8337
:102290007F7C7E7D736F73838B867B7180949A8A3B
:1022A000706D798C90837E7E837B6B6A748B8B8060
:1022B000787A96988F7468758390838282847D6A19
:1022C0006A708289807C7B8F9A94816E737C87840C
:1022D0007D82858573656B7B8E8A7F757B929794F3
:1022E0007E70737F8A87857D767470767B81878028
:1022F0007D7685959D90726B71888F867B757977D9
:10230000726F7B8C8E897A7D8E969275696E808FC6
:1023100089827A7D7A6E686D8599998A7C8D9B9881
:1023200083686773898D847F797E6F6669768F8E07
:102330008575798E95927464687B918F897E7B77A1
:102340006E71758791887B6E7F91998C6F686E8AAC
:102350009792887C79726D707B8C8D8574778F985D
:102360009776656B859C94897975706A6A72848C9E
:10237000877E788A93927F6E7682948E857E78753A
:1023800067656A7E9190897A7F8B928F7A74748266
:102390008C8C8978746D6E777D8A88877C798B992F
:1023A0009E87736C738684807B7B7B6E6E72838B5F
:1023B00082796D8298A4997869677A8B8E8B7E7307
:1023C000696872808C837D747F99A19A7A68687D30
:1023D00092928A7E78777572747F8585837E8992E2
:1023E0009487777071818D908C7F7269696F7A861E
:1023F00082817D87939489746C71808E918C8076B4
:102400006C656D778A857F7A809496947D6E7583EE
:10241000948F867E737F70646B7B8782868198A998
:10242000AD946E635F7480817976777479828680EB
:10243000747D818C9A929280746B6D787C86878390
:102440007975808285837F797683878D867D7E848A
:102450008F8C857F766F697079878C8984797E838C
:10246000857D75788595989186796B5C5C6A7B8FA4
:10247000908D81849190886E6A6E85969799857506
:10248000605B657588847F80889DA198816F6E747C
:1024900083818581797771747785867F817E8A973C
:1024A0009B8D7572747C817D7873727075818C924E
:1024B000858076788E948E7C74778087827B74702A
:1024C000707179828F989386757F8788827573740F
:1024D000848C8E8B7F70676670869594887C7F8BEA
:1024E0008E8A756869798F8F8E8681796F6A6F7D24
:1024F00084817E7D8D9C9B8A6F676A808B8B897EB1
:102500007B7270757E857E7975839AA59D81716DCC
:102510007788857E75737876797D8484807D7B8AE3
:102520009694877670738288827B7778706F7884D0
:102530008F8B847B8092948B7160647F95928D8465
:10254000786F66676E7B87868D89959B968A6E6BA2
:1025500070828D8F9087807264646F8087857F7EA4
:1025600093A1A2876B697284898A7F7B79706C6D75
:102570007C83837A72809AA3957E6F70828D8D851D
:102580007A776E6C6D77878B8778788B9A9C846C62
:10259000697993968C7E756F666464798F938D7F6D
:1025A000828F928A6E65708B9A948574746C656064
:1025B0006D889694847E8C9697816D6D7D918E87C3
:1025C0007C7C797169697D8E8F86797D929C9980FA
:1025D000716B788686837D7E746C6B74828A847A54
:1025E000768598A09172676F878C897B77787073F6
:1025F000747C87887F777B909D9C88736E7F8F8BA0
:102600008272716F72777E8C908D7F727B8C9B90C3
:10261000766E7892988D726264667176808C938DF6
:102620007E767F9094806D6B7C9293877674716DCB
:10263000696C7C8D9389787F959E94746A6B849283
:1026400090857A7A75726E73808C8B807C8C999C65
:10265000877169748C8E84737373747370798487D3
:1026600082767D919D9A7E6E6C808D8C8074757261
:10267000737278868F897A718499A58E6E66759348
:10268000958A79727275736E798A918C7C7B8D9A3A
:10269000957A6C6D818F8B817672706B686F7C8D93
:1026A000918C80828E9C8C6C5D688A9A9580756D09
:1026B0006C6C737B89928B7D7B909D9A7B6769861E
:1026C000958E8376777573737887908D81717F90FF
:1026D000988A726C758A8A84736C6F7F776F79853C
:1026E00096877A6D7F9499816F7083938A7D7174D8
:1026F000757871768698948170778D958E75717CDA
:1027000093998C796E727474737A889190817381C5
:1027100092957F6E7182908C7F7678726A676E81F7
:102720008E8A7F737D8A9592786D7488938D7B7085
:102730007474757E84827D85807D8996977F736FA2
:1027400080918E7E71787A78747A88898579758897
:10275000939D856A6A7998A196765751647E8C8C90
:10276000807A77727A838F927D73768A91897F7867
:102770007E7470747B8C8F8E8689928F877170784F
:1027800085908B8B82766A6B757F8F8F8C877A8230
:1027900083807E746D778789897D7876666B7E8984
:1027A000877C817C7B899A97706B6A7AA397767213
:1027B0008B745178968B83877E7D838A77637D7F48
:1027C00080998D787F7D6D717B818B8E8D7E8289E6
:1027D000838076757B818B90897C766E6A6D758738
:1027E0008B8B7E808F93897575757D8F917C7D89AC
:1027F0007B6E696E78779096929D978B5C5D778300
:10280000887E7D8287717E837E8E938E8090A59157
:102810007153515F5A68697E90979D878F95A3ACDD
:102820009C8A72757B6E68746A5B64727884857F3B
:102830006F63677790949390A4B3AE9581857C7C09
:1028400087867A69584D46506D858885869BA2A3F8
:102850009F89847A818D8B8C847B7566636D737B95
:102860007F7D848F8B85747172788990948E897D39
:10287000706070857E7F7B8C9B998A757372767A87
:1028800084888C8A776A6D7B83858A8E8D8F8B781E
:102890006E717683827E887F76756A7A8182838480
:1028A0008D90968E897E797C75767A818076726835
:1028B000667982898E8B92989B917F7979767479EB
:1028C0007D87867B706B77827D7D7A8293958E7F04
:1028D0007D7D838178848A877A6D6C6F787C797846
:1028E0007E8B908F8980838A89827B7B7B807468D2
:1028F0006469787F89878F9993827A84908F8282A6
:102900007F7C786D6C6F7B80798188928E898376ED
:102910007476858C86848384786C737B847C7C78E5
:102920007B8987837A8182858884848683766B6AB3
:10293000727B84837B7E8C92908B85848284807D65
:102940007C7A776C69737D8682838286908E8C8098
:102950007C797B7E7F80827E7374788586847D7DA2
:102960007A858A85807D817B80808580787C7A7D70
:1029700077757F7D7E7F8591948E7876808D897C3A
:102980007A7D7D7A7675767E827C7C7B889190825A
:10299000797F7C82818184867B7072757B81807E69
:1029A0007E79828C8D867778808683807E7B797530
:1029B000757A7F7D878C807E8D968F7A7277818203
:1029C0007B7D80847C7875768185837F7A7F8D8F0F
:1029D0008C7C76767E84818583837F756A6F7C8725
:1029E000887B77819299897C7379847F79757F8BD5
:1029F00082727076808C8A7F838C949082777578CF
:102A00007B7D7B7D7F837E7871737F89887E7D83EC
:102A10009299917A6C717C81787C83847F796D71D5
:102A200084878477787F8E9B918276787A81847D83
:102A30007D80887F726F7A8985837B7A889692857C
:102A40007A73757979737A8389867C75737C888DBE
:102A5000838483858B8781767D7D7A72727E84857F
:102A60007A746F768385878D8B888A8A877F76795B
:102A70007C7B7D777D868780756F7B888887848463
:102A80008285807C7B747A7D817E7D82888A7C765B
:102A900076828E8D7F75767F89867D747A807D794A
:102AA0007B858A887F7A797A82837C7C79858B9012
:102AB0008A827D7682817B75808A8A7A73787A7E33
:102AC0007C7F7781898D8D88897C777575797A850A
:102AD0008C8980747776787A7B83858682898E8DDF
:102AE00080787A7E7A77838A8B8079767071758028
:102AF000878A8682898B8A807A7A7A8281828486A2
:102B0000887A6E6C787F828281828085878B867AD4
:102B100075787E7C7D848487807A78737B81857FDD
:102B20008583848E878276787B7C817C7E7E888894
:102B3000787377808081838687868D85837F7A7896
:102B4000767475808387847E7C75778083818585A4
:102B5000858889897E7571747A797E868A857F7D7C
:102B6000777A7C7F8583818287918F84767476796A
:102B70007875818C8A7F7C7C80817C7D7F7E808162
:102B80008B858078737B767878818C939486827E2F
:102B90007875737A7B7D76808F8A7F75767A7F747D
:102BA0007986969C8D887E767974717074737C8F2B
:102BB000949587827C77797D8A9295857C7D746DEA
:102BC00065656E7D8A898C8F8F837874757A787F3E
:102BD0008A958E8A877D7C7175767A7F7A85898AD7
:102BE0007970777B80767881909A948D7973726F03
:102BF0007A7B81787B8C8B8B83837A797E7F8688C6
:102C00008E877F7D767473736F70767B8C959992C7
:102C10008A877F7F797C797B817E7C7A797A7870EC
:102C2000727582909698908885847C706C717A8396
:102C3000828484807A74727B85898C898A8B868170
:102C400079727275767479828789858380818581AE
:102C50007F83848284817F7C797B7A7B7B80868280
:102C6000818281828281807F80808280817E7F815B
:102C7000807F767272777D80838387888C8A848157
:102C80007C7A7C807F7E8085807771757B80838273
:102C90008383868884827E81807A787D8181827F29
:102CA00081837F7E7B818180848685807E7E7C7A25
:102CB0007979797D808285848381807D7E807D7C29
:102CC000797E8281817C7C7E808082807E83838508
:102CD00081807F7879797D83848383848284847FF3
:102CE0007A7E8182848484847E7775757B7E8183FD
:102CF0007F79797F81807F808086878A87848581BC
:102D00007F777A7F7E7C7677797B7B78797E868801
:102D10008586888C8B8B88827F7D7F7C76787A789D
:102D20007475787E828488888583888B8885818085
:102D30007D7A7471747B7C777B7F818384858483C7
:102D40008180828487837F7D7A7976787C7E807F9C
:102D5000838383848583818686898884807D7B764E
:102D60007474757A7C81858686828381817F808078
:102D70008080807E7D7D7874777D828686837F806B
:102D80007D7D7D7D808185868784807F7C79777C51
:102D9000828585817F7D8184807F818485827E7B21
:102DA0007C7D7E7F7E7C7D8082827D7F838483822A
:102DB000807F7D7A797D7E7F8183837F7D77767743
:102DC0007C81838587888483817F7D7A7D808486EA
:102DD0008182807E7A797B7C7E7F858687858282F0
:102DE0007E7B797B81848883807F7E7C7778777E09
:102DF0008180827F8080827F7C7F8184827F7C7ED5
:102E0000837F7D7D7F8383827D7C7C7C81848582C2
:102E1000818382807E818184838282807F7A7B78B5
:102E20007873727D8486868A8B8783817B7D7E7DA5
:102E30007D7C7D7A7A7A7D7D807E8085888684849B
:102E40007D7B797B7D7E818080828485878784817C
:102E5000807E7E7E7C7A7C7D7D8081817D7E81808E
:102E60008381808183847F7C7B7B7C7D7C7E838669
:102E700086807A7A7C7E7D7B7E83837E8083827E61
:102E80007D7F808186898885827F7E7B7775797C4E
:102E90007E828485878A86817D7D7C797C7E7E7D2D
:102EA0007B79797A7B80818486898B8787847F7A16
:102EB0007777787C7D7F8182827E7F7F7D7E808137
:102EC00081808180807E7E7A787D7D8486868687FB
:102ED0008784807D7E7A7C7E818081848180807DF4
:102EE0007D7D7E81818384827F7D79787A797A7E07
:102EF000848785807F81827D7875777F868A8681C9
:102F00007E7E7F808182828182838587857F7774C0
:102F10007A82838181818487817D7878797A7C7EC9
:102F20008283827F80818285817D7D808687857F87
:102F30007B7979797B7D80808281818587847D7BA7
:102F40007B7D7E808182807D7B7C7E7C7C7C80849E
:102F500086888886837F7E7D7E7C797B8180808168
:102F60007E7D7C7E7F808184858787827C797A796B
:102F700079797A808382818183807A7980878B8452
:102F8000808286847F7A787A7C808485848181823D
:102F90008183847F7A787B8181817A77797A7E8157
:102FA000817D7D7E8083878986807E7B7A7C81821D
:102FB000807D7C8285837C78787C808485898A8208
:102FC0007B7B807F7B797B81868886827E7B7B7C16
:102FD0007F8382838383837F7C797977787C838AFC
:102FE0008584817F7E7A7D7F8483807F80827D78E7
:102FF0007675797B7F82868784807D807E7F7D7CED
:103000008082858486817F7B7E8281827E818485A9
:10301000868587827F797B828787716D717F8789BB
:103020007F6D6D77858F9C9F998E836B59545A6500
:10303000707D8A94999D9592877576788281888B28
:10304000837A696C686E757F949CA0928C887F7976
:10305000665B596D8A8D9490938C80837A7E797C9F
:10306000848181767578807D7371718392989D9744
:103070008E7D6F6C6E716F747F898B898A888A826E
:103080007A76727B8590928C83716A676C72748693
:103090008D9B9F9591837D7264666A707C8A929104
:1030A000877970757F8183868A8F8A837F77746D35
:1030B00069737B7E88959B9A91817574767D7E82FB
:1030C000807D807F7C7875717680898A8F8F8D87EF
:1030D0007C75696E747C7F7E7E82888686807F8028
:1030E0007D7E7E818687877E7772737679818488FC
:1030F0008A8B88858277747272797C8288878985C9
:103100008686817B7A8388877E76788186817B76C6
:10311000767D868C8F8E8A857D7670686A757879E3
:103120007D7D868F90857D7779808487817C7A7795
:10313000787A77787B879395978C8688898680774D
:1031400072737A807F7E7E8280827D7C7C7F837FAB
:103150008485827E7C7A757371707A858E8B848586
:1031600081837E797C8184828081817D7E7E7F7D6A
:103170007B7C7F888C8988817C79767A787B7C7E61
:10318000848686817E7F7F837E7C7B838A86817A2C
:1031900076757F8286837F7D7C7E828788877E7638
:1031A00075767A7B7E8383827E7C7D83817A7B7851
:1031B000818A8C897D7B7C7B7B7B7C7F888B8986ED
:1031C0007E7D8184837C7C7B808184878285817DF8
:1031D0007A77787D81837F7B7C7874777B7C7F8135
:1031E0008388928C837C75716C758183847E7A80F0
:1031F00087847E80868B8B86828385837B75787BB4
:103200008185807E82878A87827A7A7E81818084A6
:10321000837E7B7C7A7A736D73828E8E8F867976CD
:10322000727375777E82898A807D7C81807B7575DB
:1032300082868B8581898885817D7B7B8081858461
:1032400086867E7D7E80817B7B7D80888989827970
:1032500074777A797F80898A857F79777B7C7979A1
:103260007479848C91897F766F717B848A8F898051
:103270007D7C787D7E797A7F858B8B847F787B7867
:10328000767D818987868584898A8378767D838720
:10329000807B7D7E83858180777680858688857F2B
:1032A0007C767C87848075717578858985837F7647
:1032B0007572737C84888887868A8B897E7579810C
:1032C0008689847D78706E6A727D87918F8D8A86FB
:1032D0008E9085786F727C80808379747670767E2C
:1032E000848B8D90908E8888867C6E6B727A8580B8
:1032F0007B787879807E84817E80808784909C8BA7
:103300006A636A8295857C76798688848171717E0C
:1033100079848896A7926A586E8FA08772646C82AF
:103320008A82766F708382837D86A19D785C6A85B0
:103330009C8970666E87978E80726C828081818D89
:10334000AFA675565E81A69C866E61788D8B7F6C6C
:10335000688381817F89A29668506082AC9B7D5F83
:1033600053719093866B6780838B84929B8D625997
:103370007291AF977764708A9A8F7B636D7B8E8E24
:103380008D9B9881545677A2A48B6960728B948729
:10339000716A747C8E82919B8E6B5A6589A4927C33
:1033A000616C85928D7D6B777F8988859895785C37
:1033B0005F75A5A4896C5E697E8D897B6E80898C22
:1033C000868B968961576491B19E826567798885FD
:1033D00080777A7F7D8085959A886D565D8BA2A0D7
:1033E00088706977828176727C7C84828FA08F78E6
:1033F000665C7DA0A899766D647E99755A4C5D7B5C
:1034000087A0B2BEC0A9876D494E636A655D7880AA
:10341000979B968A77767AA1AE9F83837573837321
:1034200069454A607C9BABB7AD957C74676A686DF3
:103430006E6B7690B3A6A181696160717F988C8371
:103440007B7E7C767D685D5F739AB9BFB28D736059
:10345000586260686E7D8E9A9F988A72625A738AEB
:1034600098A7A08F7E6F666C696156657F9AB9C117
:10347000B38D7160676D7477757B7D83838A7C758E
:1034800072747E889E9C9A8C7C726C6A727671765D
:103490006F889D9E9C8D7A6E6D78878A86787E8CEB
:1034A000897F786A636D7A86939C9A908576747A20
:1034B00078736B6E7988979F937C6E686B77868D37
:1034C0008A8481858B887A6D60627D8F9CA0978DC0
:1034D000826C696D6D787073808D9FA2967F656830
:1034E000787E8D8882877E76787375756B6F78911C
:1034F000AAABA2876F717575746D6F7778818A93A7
:103500009686766F747D919C8C776F798483796CC5
:103510006C6B70889DA5A28A74716E81877C6866C9
:103520007B8E9C948578756B6C747D8B959386816E
:10353000838F87725E5B6F889D9A8F827976746FB6
:10354000737F8384848D93968A7361596A82919282
:10355000918986857A72777B7574747E94A2997E40
:10356000696A788B8E7C777A828C87807C7C797094
:103570006C778F9C95837577868B816D6C777F8454
:10358000807F85877D78707D8F90876E6C8399951D
:1035900083726F757B7771808C919180727C8E8D38
:1035A0007C686D829497877C75787A71727C87913C
:1035B0008B7A7C8C978C725F667E9396837A7F86FB
:1035C0008371656E828C837D83929A8B72636D802A
:1035D0008C8D817E86867F7374797E797177889EE3
:1035E000A0907666747E81837A7E888B84767B81D8
:1035F0007E786F6F809E9E8E7E71757D83796B71F4
:103600007B868B82868C897A6D687891958E7673AD
:10361000858F8B776E73787C7F7C84919285756DB6
:10362000798B8F816C758893987E707075797174C1
:10363000819193847A7F8E8E807269737F91958653
:103640007C7A837B6E717683857D828A9A96846B81
:103650005E6C82928C827C82847B72727A84817EA0
:103660007E889C998B70666D818B7D7C8085817B4B
:10367000767B878276747690A8997F625E6C83826F
:1036800071747C8F8B64679396867E787E89939520
:103690007C70777F908D817B7F7E7A8284868D821D
:1036A000786E80948C846F6E7E9492857B747D7A24
:1036B0007070798D907E7B7B8D8F85786E6E759026
:1036C000948F7C79786F726E8088827D7A89968CEF
:1036D000897E70707E83858C817B7973757B797D23
:1036E00081848691959B88695F6A888C81767C7ECF
:1036F000827D7D89897F736E849193916F6C7584CF
:103700008F888377737B7B7D7F8683787A758D92B4
:10371000897E727375949A90796B7371737B8183D0
:10372000827F798E9E8B846D6774808F9097887B63
:103730006D697A7D7A7D81857F8B92867B696C74D9
:1037400089968F84797B777277817F7D8584889154
:103750009487766C707F828586878482766D6E779B
:103760007B7B7D879D9D8E7470717E878580777F42
:10377000817B79787D7E7F7E71859B9A8B7770784F
:103780007D828A878783827C767A828986787B8528
:10379000817E74656071848188898A8F7D79706E7D
:1037A000858B8077808F91817668607F939F8E7EF6
:1037B000807A70738281837E8786899891868C8ACD
:1037C000776E727D8686838A827972717779767F49
:1037D0008F9390827B776D707A7573727782857D17
:1037E0007271727B858B8A8885817E7E7D77787504
:1037F0007575808884858682878E8E8D888A8B8A6F
:10380000858586848080817E8080818081898A818F
:103810008380797773746E6B7179817E7375797A31
:1038200075747D878885867F7A70717A7C80827EC8
:1038300086988872778D8E7E7A8287838989888838
:1038400089837680908F7D7A8D95817C8B8B7C7738
:1038500080807E838A847D798081746C696B767DBB
:103860007976727C7C7B7A747882828077737576C5
:1038700083766F7A8485848E96878B91858D8F89E8
:103880008E90908B8684847E7A7E7D848A88858DD6
:10389000827B79767D757B817870747071787373B3
:1038A00077787D80838378757B7C797E7F7E817B52
:1038B00080858085888A82838B8E8D8A8682807FB0
:1038C00089888A89858985857F848283878786839D
:1038D000827E7F7A76737B8279767B807B7B776E44
:1038E0006F757D79767C7B7F796F72757D7A7E814D
:1038F0007C8588848180868C868A918F8D88878854
:103900008888868581848483868381838482818379
:1039100087837B7877757C80756C6F7B7870747922
:1039200072707B7D7C7F85827E7A787D7C7C7D7FDA
:1039300086868081858884878B8A8A8C8C88888912
:103940008885898684898C8580837F7F7C81858139
:103950007F7B7B7D7A7270737976747A7F7E7876DE
:10396000767873747574797B7777797C7D7E7D7AD0
:103970008088938A858A878C888887878A888683C7
:103980008185898582838A8B8984808083838182F3
:10399000807E7A7F8078767C7E7B6E7179787B778B
:1039A0007574767680827E7B7B797C7F7D79797E6B
:1039B0007F868183818282838481898A8D908981B7
:1039C000817D858C838085827F84858B84777C80D4
:1039D0007D7F7F807C747D7F737B807974757C8133
:1039E0007F7C7E7973787B8282787D7D7B7F828607
:1039F00080797D88878386878F908583888A837F77
:103A00007E828582837F7D7D7F827E7D81828585AA
:103A100083858279797D7E7970767C797879797DF4
:103A200082827C7A7D7F8181828281807E7C7F7CA4
:103A3000797E838282878B88817E7D818888858557
:103A4000858282858487807E7F7E85888686817A4E
:103A50007B7D7D78797C7E77737D7F7D77747375D0
:103A6000787B7D7E7C7775787E797573787E7D7ABC
:103A70008286828382858488908F8A8F90918C8EB3
:103A80008B858A8883858A817D7F847F7D80818202
:103A9000807D787C7A7A747776717075786F6E6BCA
:103AA000737B7576777277767A8284867D7C7D8368
:103AB0008781827F82868A908F8883888B8A82869C
:103AC0008888898181838783807D7C7D7F848482CF
:103AD0008283827B777676797C7973757877767254
:103AE0007479777B7D8185827E7C7B7C807D7E7B0B
:103AF0007D85827F8284818385888C8B8D8B8E8C63
:103B0000858182868684818587827F7B7F867F7997
:103B100077797C7E7A7A7C7C7D7A73747679797514
:103B2000767679808078757A7E7C7C81817E8081D2
:103B3000858685818184878A8A8F8F8F8E8B878AFD
:103B40008A848488868386847E7B7C7A7B7B7D8066
:103B500081817F7E7E7A787474727074757B7B77D6
:103B600073707277797A8281838586898685807D74
:103B70007F8188888684868887838187888C8E89E0
:103B80008A89898782848686828281817D7B7C7B0B
:103B90007D7E7F7D7773767A7A7776777877787798
:103BA000717377787C7E7E8081807D7D80827F834B
:103BB000858887838584888A8383879399908A8A76
:103BC000888683807F8485827F7E82807F787177FC
:103BD000797D84847D79787775737272757C797359
:103BE0007679797675777E83818484817F7D808202
:103BF00084868689868282858683848687898A8B65
:103C0000858383808385828282827F7E80817E79A4
:103C1000797A7F7F7D797675737576767979797A19
:103C20007674777B7B787C82848686807C80817FBB
:103C300081868785888482858283838385878C8D2E
:103C40008C8B89807E83858383837F7B777A7E7A62
:103C50007774757C7C78797A7A777677797A7A78DE
:103C6000767A807F7C7D7E7F81818385828182845C
:103C700083818488878284848686868785868688F1
:103C80008B857E7D7B7C7A7D807E7A787A787B7A64
:103C900076777B8081807D7C797877767B7E7B7A76
:103CA0007B7D7D7D82827E7D82898A8883838583F8
:103CB00086888785868884838586828283838282BC
:103CC0008585837F7C7D7E7C7D7E807D7A7C7D7D0D
:103CD0007A7976767A7D7B7C7C797975787C7D7D46
:103CE0007A7A7D80818387858386868886858280AF
:103CF0007F80848787848180808385868583878889
:103D00008785817F7B787C7E7D7E7A7A79747475F5
:103D10007A7C7E7D7D7D797E7D7875777D80827EE3
:103D2000807C7C81817F7D82828583858887867F78
:103D30007C83878A8884868686858182848584833D
:103D40008583807B7B76767B7B7A797A7B7B797BBC
:103D500078787A7D7E7E7E7F817D7876787C7D7DA9
:103D60007A7B7E7F818181848686888C8C8A888517
:103D70008482868585837F808486807C7E80808027
:103D800080808184817D78787A7D7F7B797B7E7A63
:103D9000787876797A77787B7F807C7877787D827F
:103DA000807B7D84888782838889868484858683D6
:103DB000827F81858383817F8286898381858585D2
:103DC0008380828180807976797979747273767A4A
:103DD0007B7B7B7A7B7E7C7B7C7F807D7B7B7E801C
:103DE000807A7A7D81838280808488898684878AAC
:103DF0008C8A8585878986828183868583807E7F7C
:103E00007F7D7D7C7D7C7A7A7C7C7F817E77767CF1
:103E10007F7D7B7977797C7D767678797C7D7C7FF8
:103E20008281817E7F828687858788888985827F57
:103E30007D7D7E7F8181838483858584868784825E
:103E4000848586837D7C7B7777777A7A797B7978AE
:103E50007B7B787878797C8082827F7C7D7C7E8099
:103E60007E7F7E7C7F808082817F80808188898840
:103E70008782848888898885878382827F80807B07
:103E80007577797E7D7D7C7B7D7C7E7D7E7F7F7F6F
:103E90007F7D7D7C7E7D7B7B7A7F7F7B79797B7E5E
:103EA0007F7E7F8487888785898D8B8682808180CD
:103EB0007D7C7977797D80818083858484878885FE
:103EC0008382818180807E7A7372757676757A7D41
:103ED00080828281817F7E807F7F7D7D7F7E7C78F6
:103EE00078797C80828584828486868885868683AC
:103EF00087878382827D7D7B7D7E8181898A8A8A94
:103F0000838683817E7B7A7F7C7277737575717C03
:103F10007F8082807F837F757172757C7B777B77F2
:103F20007F817F7F7B818990948F8D8A8786888827
:103F3000857B787C7C8380787276798693928F8873
:103F40008C8A8083818184817F777D796E6E6669BA
:103F5000737E8083857E847E797974737D7B787FA0
:103F6000747779777A8294908D948C8B84807C7B23
:103F700076747E8587838181817D868E8E8D908FFC
:103F80008B75696B6D7880A7AD9872483E4B6780E2
:103F9000837E7D829594A4A6AFA096BCAC996B5706
:103FA00054545032415F809AB1BBB09B9F929AAB00
:103FB00096875D46303C4C58727273615E6D746BCF
:103FC000839B9CABB4BDC4BB9D8370534456708A25
:103FD0008976674D4A546B808D8F89979692979614
:103FE000938C928C9394949B87755C5355677886D9
:103FF0009186766F74828F97A3998D83766F707296
:104000006F75757E83858B888B86858584888F8A7E
:104010007B6B64696B7E8E9C9D917C676B6D7C80F5
:1040200082847C81766D666E797E7E86959A9F9B72
:10403000978884807D797973646153575F6F80922C
:10404000A8ABA39189888686888882796C6263642C
:1040500068787C85969691817E7D878F8A8F9393F1
:10406000827072766F7176818C8D85766D6B7788B4
:1040700089919595897875787A7B7872776D665B8A
:10408000636F778C8D96A0A09B8D8B8D86878380A8
:1040900080756E686A6D7B878B9897958978717A41
:1040A00083848882847F797170767A86888A8D8B02
:1040B0008178777E8185878484776F606166738C71
:1040C0008E91918B817374838790938A7D726A5AE3
:1040D0005D6B7F969695918882787C8C919797926C
:1040E0008A76746D686F859F9B94897E75626C83F8
:1040F00089908A8474616358626F819E938E7D7209
:104100007065717E919E91897F72756D787682A1BE
:10411000969382807E747D8E9A9A8D7F7567686B88
:104120007C7D9AAF9A8B706D6868788E9995847152
:104130006C6C6F717F77939C8879626D6570849BDE
:10414000A2937A6D6A67717C8780A1967F6A596CA9
:104150006B7E94A5A4927E77707A818D908FA98EC4
:104160007D6966757080919E9B816F6E717B7B8F80
:10417000828B9C786C535D686781999D8D766B6DA1
:10418000747A839488A29A7B6C5A6C68728B9B9A1F
:104190008579777683818D8E899D8B7F706F7D7A0F
:1041A0008597998B746C6F768282948E9598786AD5
:1041B0005E6B6D6E848D8E806B6D71797C7C8A8672
:1041C0009389726C6A7B767F92958D786F70758318
:1041D000848F8E8C9A867D757D887C8E9A96836E70
:1041E0006F727E8A8D90889590756E6A7B78768BDB
:1041F0008C876C636B6C7D838784869584746F7009
:104200007B7583938C81686971757B81908E969B99
:10421000857D777A7E7B8B9083746C788487898C9C
:10422000938993928279717F7A7A89877C6F6C798E
:104230007F7F7F84867D8A867B6F6C7D75818F8B87
:104240007E70737C828180837F7D8F85796A6F7DAC
:10425000778A9390857C80868A90898784879380EB
:1042600073666B7272869190887F7B7D82867E807A
:104270007C84928173676D72727F87888378767D84
:10428000818685848088928A796E797D7B7F898D0D
:10429000887A777E848B87868086978C7871747C09
:1042A0007D828988807271757E8B888483849389EE
:1042B000746C737F757A87847C6F6A737B85848066
:1042C0008085938674747A8781838E8E87767074E6
:1042D0007C87867D7C7F938A8185828E8681888992
:1042E000867D72777C828076747084857E837F8BF6
:1042F000837D85827F7A737578828075736A7C8806
:1043000085898086857A828A8A8377757A808378A0
:1043100073758194928B8380837A7F868C8D817C68
:104320007D8184786D696F8D90877E77796F717FDD
:104330008E8F8B867F787C756F706C888E837D7195
:104340007675728591938C86847D8077707479936D
:104350009E8E8576746F687A888D8E858180838441
:104360007974808F9D9484796F76607887878E7D4D
:10437000796F828C8075777A898E8A7972736E767E
:104380008297958E7D74757C77727B7B8F989086F3
:1043900077757275849298917C72787B7B737C8040
:1043A0008C9F8F827471736F7F8E92938074746D03
:1043B0007171757C82978F7F78747B727C8C8C8C0A
:1043C0007F7373747B7C7B85879798877B71777508
:1043D0007D8C9192867D75727D807A81859298849C
:1043E0007F75737271828C8C877A74717980787F13
:1043F0007C8A9588807273756F828D8C88757175D3
:104400007E80797B778593887F777E7D7684929591
:104410008F7F75737882787C828A998E8175787B9C
:10442000727C8F9284777576777F7D7B7B83958B8B
:104430007C757F7F727A8A897F777375767B797CCA
:104440007C84958F7E777D7D7A819096867B797846
:104450007479818280859C8E797377777281918E51
:1044600081807F7B777E8384788A988576717E775A
:10447000737C858672717D797F848E87788C8D7C44
:104480007074807C7D878980737A82838989918426
:104490007A8B7F7B787B7E738389837A70797F8444
:1044A0008789907F81867A74717E7B818D887E7109
:1044B0006E7778858B8B88818979746C73807F891E
:1044C0008F8577777E7A7C85898A8895857B7B78CE
:1044D000817C89948B7D6667768083848C848A88CE
:1044E0007371737C7E8891968C75686B757B7E8703
:1044F00083878C7779777C81838F8F8574636775E9
:1045000083828B989997766D6C82898B968486824C
:1045100069556A898385979C97746C7174737B98CD
:10452000988C7667656E777B8A9094967F757171AB
:104530007A79959D947C615D647A808A929C9C8551
:10454000746B7272778A999683796D6771798A89AB
:104550009CA3867A6E70727D8D909081766F6B755C
:104560007D86959E8E736D6D6C7484979785786F3C
:104570006666758B8D97A28B766C736F7485959438
:104580007E787172777F8A8C99907B77727172874F
:1045900092928B7D766971788084919F8C7B6F6F0E
:1045A000727787958B7D7C72686F86848C99917FFA
:1045B000676C74748994968473736B74818C899C12
:1045C000947D756570768193938A85736E6F778419
:1045D00084969886786E76757285919A84757065E2
:1045E00074858F97998B7968686A77928F8E857CAE
:1045F00069616E818B9DA9907C676A6C738A9694C1
:104600008473696A73868A949F9E8668686C768EC6
:104610009B978C72605F63798FA5AC96806D5F5FAE
:10462000768C999488816256657E8BA7AC8E776272
:1046300065617497A599897E64525A7A93A1A99B62
:10464000836D64607699B6A97F665E60687A8DA591
:104650009D8C7568616484929894927A625A6C7D9C
:104660008EA498896F6861697F8D9C988C786A6147
:10467000737994A29A8D6B69617286919D9785700A
:104680005F6477889DA09280756761708B93969523
:10469000826D5A69798EA29B92786A5F628396993D
:1046A000918A7C67616C7F999F93867B72605D774E
:1046B0009099958A7B65657089A19F978876635DDF
:1046C0006A7F909A928672626E768B9DA191786EC7
:1046D000656977899391897C6967758795929084DC
:1046E0007C71676E81828892897C6D7177899594DF
:1046F0008B807671707483878F897F746F717D8EE4
:104700009591877D706D6D7D8E958D82776E7278B7
:104710008690988C7D767275727D8B8D837C746F9C
:10472000768594938F837A6E6B747E8A8E8A807579
:10473000707679888E8B8D8578716F7F7F878F8675
:1047400087767A7F7D81868A7F786C6F7B858F9173
:104750008D7B6A6977828D94969185726B747B8765
:104760008987877F7271717E8C9293877C76737252
:1047700076868C87867A7272717E8B94A08E7F6823
:104780005E798B8E88868175676B7C8F8C8A888634
:104790007F73787C80878D877C717077848D8A8029
:1047A0007B81796D747D868C92907E76798085850B
:1047B00083796C66616E818F9EA39B8872696E742B
:1047C0008695988F7A70686F787C8B8489827A7FDF
:1047D0007C85938B7A7A7F746979808689908D7EC7
:1047E000716B73819095967F73716D757A858E88E4
:1047F000827C71777F898E858984725C62829295D2
:104800008D8E8975697079898E919A86796E6C6EB4
:10481000737D8A8E88817A7B83918D867E76736E96
:104820007278898F8A887C6E6F7786939291877968
:10483000726E6B71818A887F79757C808A94949777
:104840008575686E797B878F8F7B696272859092A0
:1048500092948D7F6F7272747980888274717A8875
:1048600093908B867D766F7380838B87817C6F6B53
:104870006F7F8D9394908D7E737570777F817D743B
:104880007C7E81888A8E8E887B72797E80868985FF
:10489000716D7674778590918C8D8A7B747B827B29
:1048A00076757372737A8A92918A85857D79797D1E
:1048B0007F7F827F76717277848D908D8684807FF2
:1048C0007B7D81807F7774767B82878B8B88837BEF
:1048D0007C7B7C807D7F81807D7C7C807E7E7F80F8
:1048E00082808384827E7D7D7C797880837D8487CD
:1048F00082817B7A7B7F817D8386857C7B808380C0
:1049000082847D7B7C83807D7E85807B817F7E81B0
:1049100081878783817B7E807B767A7979838581A5
:10492000848587857F7C76797D7D7B7C837D7A8499
:104930008083868189857F79787E7E817E7F817B79
:10494000747E848F8F848481786F7B7A7E83858662
:10495000807B777A838C868483827A7B7C777A816A
:10496000858179757D858881878C857A757C797458
:10497000798586807B7D7B808C8783838880787A2D
:104980007A7F7C82837B7A7D868A8A88867E75762A
:104990007B797C8785817D7E797881868687867F15
:1049A0007B7A7A7C7C777C81828079838C8A877E13
:1049B0007F7B7677787E828686867F787982888606
:1049C0008384857F7C7B7B7B7B7F7D807A818A86ED
:1049D0008A86857C787E7B74777F8082807C7779FD
:1049E00081858C8B88827A7977757C827F7B7D7BD1
:1049F0007F83858A868584867E7575797C838685A6
:104A0000837B7D7B84888485817E7D7D7A7B7E7DB2
:104A10007A8483818683827D817E7A7C7E7C7982A2
:104A2000857E7E7D7B8287887D7E837C787C80848A
:104A3000857D7677828280838C8A847D7879787B85
:104A40007D8284837C7A7C868C827A80827B7F8460
:104A5000847A7A817D7C82807D7E7F848889807B58
:104A60007A79787C837E797880848B8B857F7E824F
:104A70007E7C7C81807B7B7C7D7B82857F84878341
:104A80007E7C817E7E807E7F7C7E7E7E817F80813B
:104A90007F7D7D80807D7F8288858384807F7F7914
:104AA000787F84827B7D7F7E7B7E7F7A80807F7E25
:104AB0007F808589807E82827D7E828081828381E3
:104AC0007A7A7F7E7D7C8182828582817E7B8284F0
:104AD0007F7F7D7D7C7D7D7B838885817F81817FDC
:104AE00081837E7A7D7C797F7B767E8482808686D8
:104AF000827D7F827E7E80818082827D7C7B7B7DC9
:104B00008183868A867E7A7C7D7F807F7F7C7B7FA7
:104B1000807E7A7F8586817D837F7D808186817E90
:104B2000807E7F7B7C7D7D858682857A7F82848D79
:104B30007063697980838B8C9CA1A2957B614E5BAD
:104B40006F74737F88848B9190847F868285837F46
:104B50008D8D877A6A635B677A8B9898A0978D8230
:104B6000766E676E707A8483878A88837D7B767998
:104B70007F838C8683837E7D706A6C76808B999A26
:104B8000938C878279726E6E7376868C8A897E802A
:104B90008077717180878F95928B7C6F6866687063
:104BA0007F8B9699928E8377747A7A74787B8284DD
:104BB00087888479737F7E79758495979187776DDF
:104BC0006A6B7278827C899793867F7F757A8684F8
:104BD0007D7D80868A857A776E6D7379868B939CCE
:104BE0009E917B6E62646E77838683848D897978EB
:104BF0007C81838084827E838C8B7D72696E7779E1
:104C000084909895908C7C706967757D8085898883
:104C100085837D817F7A7B838A8887818082776D97
:104C2000706C707A8D969798928B7B72716F70789A
:104C30007F807F808082817D87857C7A848884855F
:104C400081847D726E6E6F7C8D93959087837F7764
:104C500074797A77808D8782817F7F7A76787D7E7E
:104C600081878C89837F7F7A707074787C878D8E42
:104C70008B837F7B7672777B838A8B8A837B777C3F
:104C800074767B7D838A8F8D8C837C7C7973767739
:104C90007C82898781847F7F807F7E7A7C82898BFA
:104CA000857F7B787676797C80848A8B83837F7D11
:104CB000787277787D84898987847F7A7977757F20
:104CC00084848A8F897E78797A76797F8483898FC4
:104CD00089807A78777B7A7C85848283877F7778EE
:104CE0007B7E7F8287858285827F7672767B7F7FDF
:104CF0008685838384837C77737C818186848380AB
:104D00007E7E7A7678818C8A8989837F7E7E7573B0
:104D1000767A85898984827F7C7E7C797C8387868C
:104D200088887E77787A7874788082858C8C847A8B
:104D30007B7C7875778081848B8A857C7A7A76789B
:104D40007C8085888D8D897F777675767982888855
:104D50008988847F77777C7C7F7F868A8785807748
:104D600070707A817F828A8E8A84807B7473767E6B
:104D70008180848787827F807C75777B7E80848C2E
:104D80008B87827C7875767F8384868484807C7927
:104D900075767C82898D8B89837F7F7B77787A7B20
:104DA0007D7D848687847E7E7674767D858A8F8AF3
:104DB000827B78797673788189878788837F7C7D09
:104DC0007D7A787B8285868584817C7D7E7A7B80F6
:104DD0008A8D86807F7E7673797B7A7E878D8A85C1
:104DE000807E7B7A7E7C7D7F8085847C7B7B7A77EE
:104DF000788184878B8E8C847D77767673797D7FBE
:104E000082868D867E7F7E81817F80828584868278
:104E10007C7572797A7E8287898A8781807B7374B8
:104E20007D82807D8488817E817D78797A817F7C96
:104E300082878983837F7673757E8685878887825C
:104E40007A7776797E83888480818382817F7F8070
:104E50007B7E83857F7E8588817774777979818869
:104E6000858484868279787A7C7D7F8685827F7D41
:104E70007C7A787D8080818183818182838079764C
:104E8000797D7E848584848182807C7A7B7F838324
:104E900083828382817E7B76767C7F82868887820E
:104EA000827B7C7E787E7F8685807C787773767C3B
:104EB000828682878E8880807D767678787D7B7802
:104EC0007F84948C8990827B7B8B8E8781797970AB
:104ED0006A6D747B83878D908483867E76756D6D15
:104EE00072747E8284807F8181858D96978E89847D
:104EF0007D7773727881858B959DA3A19D92827237
:104F0000655B5E60606767686D757F8A8B8B8B8879
:104F10008C8B8A817C72696662687480848F918FC1
:104F20008C8888857F7A78797F858A8C8E8D8B8A2C
:104F3000878C9397948F857C75706D6D7175788271
:104F4000898F94939790857B756F6D6E6C6A686A94
:104F5000686C6E70757A7F828685857E736B6263FE
:104F6000646E79848D94999DA09F9C99989D989743
:104F70009792939494908A898C91979C9E998E8213
:104F8000746965605C5A5E60636A6D72767673728E
:104F90006E6E717777736C65615F62677680898EFC
:104FA000929796918A8685827C7C7C7D80858C9187
:104FB000949A9FA0A29FA1A5A09F9A948C83827D82
:104FC0007F848B9495979086827A776F69645F5E11
:104FD000585A5E5D6062615C595B5D696F71716CAE
:104FE00068666A7179828D979FA3A8A6A2A1A3A1E2
:104FF0009B9A9A9B9D9EA1A3A39E959493908A8E23
:105000008B807B776F6161606064666B6D6D6E6BCA
:105010006B69676865615F636465676F73747474F7
:1050200075767F88909897918C878582858A8C96F3
:1050300099999D9D9E9A979797999694918C8E8811
:105040007F7C7B7E7A80837F8584817A726C645BCF
:1050500055525354595B6066696F727377808485CB
:10506000868785817F808081828790979CA6AAA66B
:10507000A5A7A49E9B99918582817C828585888B3A
:105080008F8E8C8E8B8780786C5D5A52515258620D
:10509000636B6F777B7977706D6661615E60666C5C
:1050A000767B828A9399A5AFA9A8A39D958E8F8AB6
:1050B0008A898C929798989FA3A7A8A1A195867E8C
:1050C000746F6662646668676F76747C857F7875D6
:1050D0006C5C4F4F4A444A53565B69747C889B9F73
:1050E000999D998B7E7B807A787D878C919CA3A8F3
:1050F000B1B8AFACA7A0918383777070777B7C83C6
:105100008D90909D9C958E8677645D5449454E5157
:1051100054606E7376888983817C746561645B58A2
:105120006571737A899198ADB3AAA9A4978B888188
:10513000797A8082828E96989BAAABA3A09A8C796A
:10514000776A5B5E6666667274737F908F8B8C88FD
:1051500074605F574F525E626972797E8595969A48
:1051600097908378796C6974797A818A8D8E9FA7FC
:10517000A5ADA89E8E8480737178787779818384B9
:1051800097959296938B78756B5B5C605F5F6468B4
:1051900068748483898F8C7E76786B676E716F7389
:1051A0007B78788D95919FA59D8F90917E7F8B8840
:1051B00082878D82859994949E9F9083887E6E735A
:1051C0007C76747A786B7881788086837371756465
:1051D0005E656561667067687D78758289817A82AF
:1051E0007C717A827D818C8F8595A194989F9A8A13
:1051F0008D9284828E8F8A8E928C8A958D878C89EF
:105200007B727870646B716B6B72716B7B7D737783
:1052100078706469696066727170787E7C83928B45
:105220008B908E8280878180898D8A8E949391A1C4
:105230009D949696887C847D757D85818084837B12
:1052400086908383877D6C71736668736F697075F0
:105250006F708382778185776A736F656F7B7777ED
:105260007E7E7D8A99909098928383867D808D8FB3
:10527000898B89858594948D9495867F817A7276C1
:105280007F7A7B7D79757B857C7F84786C6B6B63A3
:10529000667477717878707181837A86857A757C87
:1052A0007B757E8886888C878B909897989B938750
:1052B00081827E7D848E888A877C7B808E89898DA1
:1052C00085766E706C686C7472716D6B6871837FBB
:1052D00082887F726A6C696B777E7B7D7C77727F58
:1052E000938D949C94857F857A7E8C8F8C8A887F21
:1052F0007F8C99979DA093827C7D727580827A7E47
:105300007A6C6A748283888C85746B6A6160696F59
:105310006F6F6F6767717E8789918F8379767275FA
:105320007A7D878987838387949E9EA3A5978D8A9C
:10533000847E7D82868185847B7E8994918D908711
:105340007872706B6871746E6C7369626F7F848140
:105350008C8C7B6D6F6E6C727A7E7D7D7C747783B6
:105360009195949B92827F7B787B858A888A8983BA
:105370007C8894989899998A807973727A817A7ED8
:105380008181786A727987888682796A65646C68B7
:10539000737D747C76776F84979C90827E6F738127
:1053A000807A7F8984878E8988838F888E978E8C78
:1053B00090897F7E7E827F83898E87857E78797BC8
:1053C000817F7D7B73686A6D6B6E75798086867D63
:1053D0007177797C8285857F776F7171748088960B
:1053E0009A9490857C7C838C908E8E867776797F5C
:1053F00080889596908D86797980838784817A7369
:10540000717371747B7C80838079756B6C72798227
:105410007C7F8378757E7F7B7E8E8E878E91897C64
:10542000807C7781888F938E89817D8689888D8E17
:1054300092897E777874757E7D81857C7272717BAE
:105440007E7F827E7F7E7D6E6C6B6A7C7F7E8080BD
:10545000817A767877798588918C837A767C78875B
:105460008D8D95938985808277788C8592988F81B0
:105470007175717A8F8A8A8D87827573766D738064
:1054800084827A78696D706A7D7F82888381726B8D
:105490007976777C888F80887D686F72808F909D09
:1054A00098938C767A7780877C8D9B9B90736150E4
:1054B00078AE9A8490977D5C738A6666878E8888BA
:1054C0008369646C6B7E82828E89897A6D6D687067
:1054D0007C79828E887C737C76718A8F8E9A9C9080
:1054E000827A7069788E959892908B76706A7C97A4
:1054F000939A9B8C796B75746C777A84948B7A69A8
:1055000065655E7795938F8F896F6167636F828D15
:10551000968F877B65656B77949B9D9F9088776F4F
:105520006F71889691969185796C73728197999F26
:10553000988A806F727275828990857E7C665D67BD
:105540006F859099988884706867687277858B8278
:105550007E776A6D6F7F9094A0988C846F6C727662
:10556000858F9E9C8D887A73787F8F979AA091857E
:10557000756B73707A878C908A81776A706C718989
:105580008C8D8478736F6263696F87929087816A6C
:10559000626C6D838E95989289736F706E7E839323
:1055A000A4938F8169728080858B95989C93857771
:1055B000626069819EA58B755B6172748A7F828E41
:1055C000898B776C6867767E8C8B8186736D6B6652
:1055D0007B7C808B8F8B7F7672747C898B92958D90
:1055E0007F7777737E878B90939489796F6C7283C2
:1055F00098968E8975797A767A79818A8E88797289
:105600006E687681828286887B7572777771848CEA
:10561000806C8297807E766789A48A8386857F6A7C
:105620006C7D8E938C8E8B80787484948B868C8525
:105630008778727E7B7F7B797C8081807D807E769F
:1056400080857F7D7478887E7B807876767C817D8E
:10565000787B85818079758179838C8A8D80737957
:105660007D7E8C94878D897D716E85898485878206
:10567000867D737C807A747D98897981767A7E8044
:1056800082959281766B6B6B74878F897564707766
:105690008188899193827178807B78777F87848CE9
:1056A000817D817182918D9494918274746E828EC9
:1056B00080858A8A7A646F91948D7D7E86706F7101
:1056C000889378736F75837D79707E948E847D74F2
:1056D00075747380888A8D7C716F6D8090918688D7
:1056E0008F8A807C777A8587807E7B78757E9B9495
:1056F000908283888378697C75716D6A6966859804
:10570000A2A2998B868F7C6D697881787F7F7F7D5F
:1057100071706E727871716A70726E787B7B7E8345
:10572000888A8A9CA9ACA29B9079716A706F7480F8
:105730008E918E959CA69F97848178615551595F73
:10574000656A6A6F7C7D94A59D8C89938065666A85
:105750006A696776757171899C958F8E918F8E7D40
:105760007776787F778188818E969495A0A9A18C91
:105770007C7C7B746B777F797B8384848286807664
:105780007270746B71706A6B6E7975706E767A7EFA
:10579000867C787A7A716A6E74817F787D8B928943
:1057A0008F9292908F8F8B8A8C9589878784848241
:1057B000858C888A8B909080828183757C716B65E3
:1057C00071695C787485837C7C7C77787E7C7E785C
:1057D000747B766D7473717781889294978F8685C8
:1057E00082808182817E828D86828E938D8E8F8D46
:1057F0008E8A8A8989837F8183888E8F837E849035
:1058000087787A7F7B69707974676069736E676D7A
:1058100071706E6A6C7270747975707A7D7F808435
:1058200091908F949896928A8C94989292918F8A64
:10583000898F918F8E8D85878484817E78716C6C41
:105840006E6D78727375797B73716C706E7078772A
:10585000747A79787A777C81857F81888386898D4F
:105860008983858688868788878D92948B8B8D86A1
:105870008A8B8C8A87888D8D8A848280817E7982CA
:105880008083807D7B7A756E6D6E6E6F6D6A6C71D4
:10589000716D70737875787C807F7C7C8381757E78
:1058A000898B898E90949092989491958F858A8611
:1058B0008C898687939088908B8C7D7A7A7676789F
:1058C000767276727270716D6F7371756E686A65DB
:1058D000636C6C64656A6F70757F83868488878C5F
:1058E0008C8D919B99949895988A91A2A89A949D51
:1058F000A99F909493978B8D92897A7E7B7C7A77FF
:105900007F7A7D79706A6D635C5C5E5D5D5B5B6117
:105910005A5B6565686F6A72757573798988818865
:105920008B8A8F9299A0A5A0989798958E939A9D0F
:1059300098969C979085868C8E8A8282817F787CCF
:105940007674716E71717674736B6B65686B676278
:10595000656B69666567656D757E7E7E82807C821B
:105960008581828C8F8E8D8D8F8B9092959A9C9B4A
:10597000A2A1948D898F8F8886868788827B7E847A
:105980007E7C7D7C766F6D6469686865666A676930
:105990006D757677737576767878777B807F858975
:1059A0008582858C91919495928F8E8D8D8A8B8B2B
:1059B00088898F8E8983848A8682868886807B7494
:1059C0007477727175817C7A7F7C746F7477776E6F
:1059D0006D7275726F6D7078838681828485828620
:1059E00086878785888584818687878C9192909722
:1059F000968D888B8F8E86837E80817A77797E7A6A
:105A00007C7D7E757577747072767069676A686977
:105A1000696C747A7B7C74797D7D7A7B8388878BD3
:105A2000908B8E8C908E8D8D908E93908D8A888F9A
:105A30008F928D8F91938D857D7D7F7D75737A7625
:105A4000707072756B697277716D767771676F714F
:105A50006E68707474777C817E7E808A8E908D975C
:105A6000928F8E888889878D8F8888898F86858890
:105A7000908A868E8E8E85817E7E7A706972747130
:105A80007070777577787B817F7B787776706A6BBB
:105A90006D6E6D73747C7E7C8082878688878B8D2B
:105AA000928D87878787848988878586858B8D8B6C
:105AB0008C8F918F8D8585848580797978746F71CD
:105AC0006C7273747574797C7E7A7C767575706C83
:105AD0006E6F6E6F6C7472798287898F948F8F93DB
